:020000040800F2
:10000000D8070020D5000008891C0008E11A000864
:1000100000000000000000000000000000000000E0
:10002000000000000000000000000000411E000869
:100030000000000000000000D11C0008431E000862
:100040000501000805010008050100080501000878
:100050000501000805010008050100080501000868
:100060000501000805010008050100080501000858
:100070000501000805010008050100080501000848
:100080000501000800000000000000000501000854
:100090000000000005010008191F00080501000804
:1000A0000000000005010008050100080501000826
:1000B0000501000800000000050100080501000816
:1000C0000348854600F028FB00480047852B0008C0
:1000D000D80700200C4880F308880C480168090EF6
:1000E0000B4A914205D10B480B4901600B480C4962
:1000F00001600C4880470C480047FEE7FEE7FEE73A
:10010000FEE7FEE7FEE70000D8070020040000003D
:100110001F00000018100240010000000000014014
:1001200000000000BD1E0008C100000830B50B46ED
:10013000014600202022012409E00D46D5409D42C1
:1001400005D31D469540491B254695404019154647
:10015000521E002DF1DC30BD10B5202A04DB08460C
:10016000203AD040002110BD0B46D340D04020247F
:10017000A21A91400843194610BD03460B439B0742
:1001800003D009E008C9121F08C0042AFAD203E00C
:100190000B780370401C491C521EF9D27047D2B232
:1001A00001E00270401C491EFBD270470022F6E7B6
:1001B00010B513460A4604461946FFF7F0FF2046DD
:1001C00010BDF8B502464A40D40F42004B00520819
:1001D0005B089A4202D20246084611464A0023D0E2
:1001E000C30D4A00DDB2120EAD1A202D35DA4902D8
:1001F0000126490AF6058A19002C00D05242202116
:100200004F1B1146B9402A411018C20D9A4221D005
:10021000002C17D0012D08DCDA05801AD20F8019C6
:10022000D207DBB200F0CFF8F8BDDA05801A01235F
:1002300040001B06C01880185A428018CA0F10438D
:10024000490007E04908C2071143DA05801A8019FE
:100250004008801800F0AFF8F8BD61000122511A83
:10026000001BF7E70122D2075140AAE70122D2077B
:100270005040A6E7024670B54A40D30FDB07400066
:100280002DD04A002AD0010E140E000212020919C4
:10029000400A520A8418E50104465443000A120A2F
:1002A0002E045043A4194219200CC543AA18120C5D
:1002B0000125AD03521C521912047F39240400D0C9
:1002C000521C104301D44000491EC2B20C06C009A2
:1002D0002018401C4008802A02D003E0002070BD96
:1002E00040084000002900DA0020184370BD70B5B6
:1002F00002464A40D50F40004A00ED074008520828
:10030000002814D0002A12D0C40DD30D41020120C0
:10031000C0055202490A520AE41A091812187D341B
:10032000914201D3641C00E04900002C01DA002056
:1003300070BD0023914201D3891A0343400849004C
:100340000028F7D100290AD0914202D10121C90722
:1003500005E0914201D2012101E00121C943E005FC
:10036000C018401900F027F870BDC217C10F5040E7
:1003700010B54018CA079623002100F024F810BDDC
:1003800010B500229623114600F01DF810BDC20FD3
:10039000D207400040080BD0C10D0723DB01C9186C
:1003A00040020905400A1143C20840071143704743
:1003B000002001467047002904DA401C490001D1A1
:1003C00040084000704770B40024050C05D110248B
:1003D000000402D1002921D01124050E01D1000210
:1003E0000834050F01D10001241D850F01D18000C3
:1003F000A41C002801DB4000641C002908D0202533
:100400002E1B0D46F540A14000D001212943084391
:1004100001061B1B000ADB1D02D5002070BC7047C3
:10042000DB05181880180029F8DA401C4900F5D1BE
:1004300070BC400840007047F0B507460846584079
:1004400087B0C00F049048000E4659004008490884
:10045000BC1A884105D2384631461E4617460B461F
:1004600002465800400810434CD0300D0390400520
:100470005900400D490D0590401A0290402872DA4B
:1004800018030121000B090508430190049800920C
:10049000002805D001995242002088410092019025
:1004A000029840210A1A0199009800F047F9054680
:1004B0000C466B4607CB00F051F9C0197141039A05
:1004C0000E0D0023D71756401A467A40164344D0E3
:1004D000049A002A2DD0029A012A039A15DC1205EB
:1004E000C01A914101263605001C7141D20F059EAC
:1004F000D2070093019202962A46234600F04EF955
:1005000007B0F0BD38463146FAE71605224A0F46D5
:10051000B218C01AB74101210905001C4F4100184B
:100520007F41114618187941E20F10436D1964415B
:1005300013E0E2076D0815436408C2071443039AE9
:1005400001261205C01A91413605001C7141CE07E3
:10055000400830434908C01851412A46234600F05C
:1005600010F9CDE7FFE7049801224000C117121AE5
:1005700000238B4104983146C417381AA141EEE795
:1005800030B40124E407634030BC55E730B40124A3
:10059000E407614030BC4FE70000E0FFF8B50546D6
:1005A000480040080C46284304D06000184A400D1B
:1005B000904201DD2846F8BD15493539884210DCE6
:1005C00088420BDB290D200308432903014305D092
:1005D000E00F1049C00741180020F8BD0020014677
:1005E000F8BD161A4020821B2846214600F0A6F8C6
:1005F00007460091284621463246FFF7ADFD3A46B0
:10060000009B00F0BEF8324600F098F8F8BD0000FC
:10061000330400000000F03FFEB5CA0FD20701927C
:100620004A000E03012105460027360B0905244820
:10063000540D0E430097844219DA801E844200DA7A
:1006400004461F4831461430021B17462846FFF760
:1006500083FD04463A4600F071F845404E4035436C
:1006600001D0012100E00021214300201AE01448BC
:100670003430844219DC134831462218284600F0F1
:100680005DF80A4678404940084301D0012700E060
:1006900000270B4817433430021B28463146FFF72A
:1006A0005BFD3946FFF787FE04E0064928464039DE
:1006B00061188840019A0099114300D04042FEBD64
:1006C000FF0300000DFCFFFF10B5002904DB01242F
:1006D000E40740428C412146002B04DB1C460123E9
:1006E000DB075242A3418B4200D1824210BD000081
:1006F00010B5002904DB0124E40740428C41214667
:10070000002B04DB1C460123DB075242A341994224
:1007100000D1904210BD0000064C0125064E05E0B8
:10072000E36807CC2B430C3C98471034B442F7D312
:10073000FFF7CAFC7C2F00089C2F000810B5202A68
:1007400004DB0146203A9140002010BD9140202357
:100750009C1A0346E3401943904010BD10B5202A6F
:1007600006DBCB170846203A1041C1170B4306E0C1
:100770000B461341D0402024A21A91400843194649
:1007800010BD10B5002B08DA0024401C61419218FE
:100790005B411A4301D14008400010BDF0B51FB4C1
:1007A00082B005460C0003D0084601F061FE02E06D
:1007B00001F05EFE20300246009021462846FFF7F9
:1007C000BDFF049B059A04460F4618431143084396
:1007D00014D0184610431BD0009840210A1A18461E
:1007E0000599FFF7B9FC05460E46009A059904984D
:1007F000FFF7A4FF084305D0012004E02046394656
:1008000007B0F0BD0020C11705430E432C4337430A
:1008100000990E986305401A7905E40A00220C43FA
:10082000FD0A0A3002D500200146E9E7010510194A
:1008300069410C9C0D9D00196941FFF7A2FFDFE79C
:1008400006490020C861064801690422114301617C
:10085000016940221143016170470000B803002084
:1008600000200240064A0021D16106490A6902239C
:100870001A430A61486108694022104308617047C1
:10088000B80300200020024010B5054B0022DA61B9
:10089000044A1369012423431361018010BD000041
:1008A000B80300200020024010B50B4A0020D16898
:1008B000CB060A4904D5C86902231843C861102031
:1008C000D3685B0705D5CB6901242343CB610421A1
:1008D0000843D06010BD000000200240B803002093
:1008E00070B5054600F078F90646104C0AE0681C21
:1008F00008D0002D04D000F06FF9801BA84201D968
:10090000032070BDE068C007F1D1E068800601D522
:100910002020E060E068C00602D4E068400703D50C
:10092000FFF7C2FF012070BD002070BD0020024013
:10093000F8B5054623480F46017E012601290BD054
:10094000012101762868204C012807D02046FFF7B6
:10095000C7FF002813D030E00220F8BD2046FFF783
:10096000BFFF002829D1FFF76BFF2046FFF7B8FF34
:100970000646164801690422914301611DE00020EA
:10098000C04338606C6812E02046FFF76BFF0E48EA
:10099000FFF7A6FF06460D48026902218A4302615D
:1009A000002E01D03C6008E0012080022418A868D5
:1009B000810268680818A042E6D802480021017642
:1009C0003046F8BDB803002050C3000000200240AC
:1009D0000348016980221143016100207047000033
:1009E00000200240F0B51FB407461A480024017EDB
:1009F00015461E46012907D0012101761648FFF74A
:100A00006FFF002803D020E0022005B0F0BD012FC9
:100A100002D0022F00D00427220128463146FFF7DA
:100A20009BFB81B2019862001018FFF72DFF0A4866
:100A3000FFF756FF09490A69520852000A61002867
:100A400003D1641CE4B2BC42E6D3024900220A7618
:100A5000DBE70000B803002050C300000020024084
:100A600005480169090605D504494160044941600A
:100A70000020704701207047002002402301674595
:100A8000AB89EFCDF8B5002389E001249C402A46CC
:100A9000A44622407ED04C68022C01D0122C0CD1EE
:100AA000DC08A40027183C6A5D07ED0E0F26AE4057
:100AB000B4430E69AE4026433E6205685E000324DF
:100AC000B4400F79A543BF07BF0FB7402F4307605E
:100AD0004D68012D05D0022D03D0112D01D0122D0E
:100AE0000ED18568CF68A543B7402F43876047681C
:100AF0006546AF430D79ED06ED0F9D403D434560E2
:100B0000C568A5438C68B4402C43C4604C68E400BD
:100B100044D5264CA56901263543A561A4699D08E5
:100B200034400094224CAD002F19BC689D072E0F55
:100B30000F25B540AC430925ED06A84201D100259B
:100B40000AE01C4DA84201D1012505E01A4DA8423A
:100B500001D1022500E00525B5402543BD60174CB5
:100B600025684E689543F60300D5154325606568F2
:100B70004E689543B60300D515436560A5684E6879
:100B80009543F60200D51543A560E5684E68954388
:100B9000B60200E002E000D51543E5605B1C0A6880
:100BA0001546DA4000D070E7F8BD000000100240A2
:100BB0000000014000040048000800480004014013
:100BC0000069084000D001207047002A01D08161EF
:100BD000704781627047000001480068704700005C
:100BE0001800002070B5040005D025466035687AED
:100BF000002802D006E0012070BD002028722046A7
:100C000000F0E6FE24206872206801684908490067
:100C10000160204601F052FB0128EDD0606A0028F7
:100C200002D0204601F0B0FA206841680922D202C1
:100C3000914341602068816822229143816020684D
:100C400081680822114381602068016801221143F4
:100C50000160204601F0FEFA70BD000070B504008E
:100C60000FD021681348086021681348086003CC3E
:100C700041602068083C21688860FFF7ADFF0546A9
:100C800008E0012070BDFFF7A7FF401B272801D90E
:100C9000032070BD2068C0680028F4D12068026974
:100CA000E1688A4201D0016101E00449016000204D
:100CB00070BD0000CCCC000055550000AAAA000071
:100CC000006802490160002070470000AAAA0000E5
:100CD00002480168491C01607047000018000020AC
:100CE00010B506480168102211430160002000F091
:100CF00007F800F017F8002010BD000000200240A7
:100D000010B5044600F0E8F87D21C900FFF70EFA9F
:100D100000F06CFC00222146501E00F02FF800204D
:100D200010BD000008B50F4881690122114381619F
:100D3000816911400091C26901040A43C261C0691E
:100D40000022084000901146501F00F017F80022C2
:100D50001146901E00F012F800221146501E00F0BD
:100D60000DF808BD00100240C106C90E01208840E0
:100D7000014908607047000000E100E010B500F094
:100D800085FF10BDF8B505464E480E460068C00701
:100D9000C00FB0420AD24B480168490849003143AC
:100DA00001600068C007C00FB04270D12878464C7F
:100DB000800705D56068F0218843A9680843606012
:100DC0002878C00753D06868012817D0022818D0A7
:100DD000032819D021688907002958DA6168890831
:100DE000890001436160FFF7F7FE69680746012942
:100DF00013D002291DD0032927D034E021688903AC
:100E0000EAE721688901E7E7616BC903E4E7FFF7D7
:100E1000E3FEC11B2D48814223D860680007800F84
:100E20000128F4D123E0FFF7D7FEC11B27488142F8
:100E300017D860680007800F0228F4D117E0FFF789
:100E4000CBFEC11B214881420BD860680007800F90
:100E50000328F4D10BE0FFF7BFFEC11B1B48814202
:100E600001D90320F8BD60680007800FF3D1154851
:100E70000168C907C90FB1420BD901684908490087
:100E8000314301600068C007C00FB04201D00120AB
:100E9000F8BD2878400706D5606807210902884315
:100EA000E9680843606000F02DF86168084A0906A7
:100EB000090F515CC840074908600020FFF720FF78
:100EC0000020F8BD002002400010024088130000FE
:100ED000612F00081C0000200148006870470000D6
:100EE0001C0000200448054900684968044A490577
:100EF000490F515CC84070471C00002000100240A0
:100F0000712F000830B516A30FCB89B06C460FC403
:100F100017A30FCB0FC41A494A680C20144604408B
:100F20001848042C05D0184B082C04D00C2C00D1E8
:100F3000184609B030BD9402240F6D462C5DC96A75
:100F400004AD0907090FD203695C920F022A02D08F
:100F5000032A00D11846FFF7E9F86043E9E70000EB
:100F600002030405060708090A0B0C0D0E0F1010EA
:100F70000102030405060708090A0B0C0D0E0F10E9
:100F80000010024000127A00006CDC02FEB504463C
:100F90000078F04EF04DC00748D068680007800F19
:100FA00001281FD068680007800F022804D16868F4
:100FB000C003800F022815D06168012919D00120D3
:100FC0008004002901D0052917D02968B143296080
:100FD000296881432960606800281BD0FFF7FCFD69
:100FE000074613E02868800320D56068002876D083
:100FF0001CE0286830432860EDE729680143296038
:10100000F7E7FFF7E9FDC01B642869D8286880036B
:10101000F7D50BE0FFF7E0FD074604E0FFF7DCFD46
:10102000C01B6428F1D828688003F7D42078800793
:101030003ED568680007800F14D068680007800FED
:10104000022804D16868C003800F01280AD0E06834
:10105000002828681DD0012108432860FFF7BCFD47
:1010600007460BE0286880070BD5E068012836D1D9
:1010700007E0FFF7B1FDC01B0228C6D8286880072B
:10108000F7D52868F82188432169C90008432860FA
:101090000EE0400840002860FFF79EFD074604E090
:1010A000FFF79AFDC01B0228AFD828688007F7D445
:1010B0002078000724D5E0690028686A11D0012152
:1010C00008436862FFF788FD074604E0FFF784FDE8
:1010D000C01B022899D8686A8007F7D510E036E16E
:1010E000D1E0400840006862FFF776FD074604E063
:1010F000FFF772FDC01B022887D8686A8007F7D403
:10110000207804274007002861DA00200190E86970
:10111000C00008D4E969B8060143E961E969014002
:101120000120009101908D480168C90511D4016822
:10113000821511430160FFF74FFD009005E0FFF7B6
:101140004BFD0099401A642897D884480068C00570
:10115000F5D5A06801280AD0002801D0052811D0B3
:10116000286A400840002862286AB84302E0286ADA
:10117000012108432862A068002812D0FFF72CFD47
:1011800000900AE0286A38432862F0E7FFF724FD60
:101190000099411A7248814275D8286A8007F5D5AE
:1011A0000DE0FFF719FD009006E0FFF715FD00992F
:1011B000411A6B48814266D8286A8007F5D40198A5
:1011C000002804D0E969012000078143E961207803
:1011D000C00635D5606901280CD0401D686B24D04D
:1011E00038436863686B400840006863FFF7F4FCAD
:1011F000074622E0686B38436863686B0121084347
:101200006863FFF7E9FC074604E0FFF7E5FCC01B55
:10121000022838D8686B8007F7D5686BF8218843B7
:10122000A169C900084368630AE0B8436863F4E74A
:10123000FFF7D2FCC01B022825D8686B8007F7D4C3
:101240002078800637D568680007800F032813D000
:1012500068680007800F022804D16868C003800F07
:10126000032809D0206A0028686B16D030436863D1
:10127000FFF7B2FC06460CE0686BC0031BD5206A82
:10128000012864D117E05BE0FFF7A6FC801B022871
:1012900056D8686BC003F7D50DE0B0436863FFF71D
:1012A0009BFC064604E0FFF797FC801B022847D80A
:1012B000686BC003F7D4606A002846D069680907E4
:1012C000890F022943D0012636060228286805D056
:1012D000B0432860FFF780FC044633E0B043286049
:1012E000FFF77AFC074604E0FFF776FCC01B0228F4
:1012F00026D828688001F7D4E86A216B000900012C
:101300000843E862A16AE06A084369687B22D20365
:10131000914308436860286830432860FFF75CFC0D
:10132000044604E0FFF758FC001B022808D8286890
:101330008001F7D509E0FFF74FFC001B022801D917
:101340000320FEBD28688001F5D40020FEBD0120E9
:10135000FEBD0000000001000010024000700040CF
:1013600088130000F8B5040007D000262546403554
:10137000A662687F002802D005E00120F8BD2E7724
:10138000204600F04BF802236B772068016840226A
:10139000914301600721E0680902884201D90022D7
:1013A00001E0012212030F273F02B84202D0884217
:1013B00000D0A662276B002F05D1884201D9236394
:1013C00001E001202063A168606863690843216926
:1013D000194308430123A1695B0219400843E169ED
:1013E0000843216A0843A16A084321680860616BC9
:1013F000606AA36908431B0C0427E1683B4019435A
:1014000008432168104348602068C1697A0291430B
:10141000C1612666012068770020F8BD00B500682C
:101420000D4987B0884215D10C48826981140A435E
:101430008261806908400590A02000900220019000
:101440000021032003900291049109206946C006FF
:10145000FFF718FB07B000BD00300140001002404C
:10146000FFB5064604464036307F002781B00D4662
:10147000012809D001203077FFF7AEFB0090707F84
:10148000012804D002279DE0022005B0F0BD002D08
:1014900072D0039800286FD0032070770020206658
:1014A000A5630399A1870399E1872064B080F08048
:1014B0002065E0640121A068C903884205D1206845
:1014C0000168012292031143016020680168490606
:1014D00003D401684022114301600720E168000243
:1014E0008142606823D9002802D0E08F01281AD1F8
:1014F00021682888C86005E020688168890706D5CA
:101500002988C160E08F401EE087AD1C0BE0049885
:1015100000283ED0401C06D0FFF75EFB0099411A20
:101520000498814235D2E08F0028E5D136E00028CA
:1015300002D0E08F01282ED1E08F012803D9216845
:101540002888C8600CE02168287808730FE02068BC
:101550008168890711D5E18F012906D92988C160E1
:10156000E08F801EE087AD1C15E029780173E08FC5
:10157000401EE0876D1C0EE023E00498002808D090
:10158000401C08D0FFF728FB0099411A04988142BB
:1015900001D3032716E0E08F0028D8D12046009A17
:1015A000049900F096FB002801D020202066A06856
:1015B000002803D12068C16880680090206E002850
:1015C00000D00127012070770020307738465CE793
:1015D000042204490428086902D090430861704736
:1015E0001043FBE700E000E070470000094910B538
:1015F000401E884201D9012010BD074C60610321C3
:10160000081F00F043FB0020A0610720206100209C
:1016100010BD0000FFFFFF0000E000E010B5FFF785
:10162000E3FF10BD7047704770B5040005D0254634
:101630002035687F002802D006E0012070BD002020
:101640002877204600F00AF802206877211D2068DC
:1016500000F06AFC01206877002070BD08B50B4AD5
:1016600001680B48914205D1C26981150A43C261E4
:10167000C06908E0074A914207D1826901218904C3
:101680000A43826180690840009008BD0020004044
:1016900000100240004801400222014620314A77F2
:1016A00002681368012003431360487700207047E5
:1016B0000268D36801210B43D360006802680A43C3
:1016C000026000207047704770B5044600680169E9
:1016D0000025C9438907002915DBC168C94389076B
:1016E00011D4E91E016101202077206880698007FC
:1016F000204602D0FFF7E7FF04E000F0AFF82046F5
:1017000000F030F9257720680169C943490717D4EB
:10171000C168C943490713D40421C94301610220A8
:101720002077206880698005800F204602D0FFF76F
:10173000CAFF04E000F092F8204600F013F9257784
:1017400020680169C943090716D4C168C94309075C
:1017500012D40821C9430161042020772068C069A0
:101760008007204602D0FFF7AEFF04E000F076F8D5
:10177000204600F0F7F8257720680169C943C906BB
:1017800017D4C168C943C90613D41021C9430161E4
:10179000082020772068C0698005800F204602D08D
:1017A000FFF791FF04E000F059F8204600F0DAF866
:1017B000257720680169C943C90708D1C168C943B1
:1017C000C90704D1891E0161204600F0EFF82068A6
:1017D0000169C943090609D4C168C943090605D48A
:1017E0008021C94301612046FFF71CFF2068016981
:1017F000C943490609D4C168C943490605D44021F3
:10180000C9430161204600F0E1F820680169C9433D
:10181000890609D4C168C943890605D42021C94372
:1018200001612046FFF7FFFE70BD000000B50068B3
:10183000084985B088420BD1022000901220019007
:10184000002002900390049069460348FFF71AF9BC
:1018500005B000BD00200040000400487047F8B506
:10186000064604462036307F0D4601280DD0012063
:101870003077022070770427002A08D0042A16D077
:10188000082A2AD00C2A4DD137E00220F8BD206862
:1018900000F098FB2068816908221143816120686B
:1018A0008169B9438161206881692A6912E02068F1
:1018B00000F0C4FB206882690121C9020A438261E9
:1018C00020688169012292029143816120688169C7
:1018D0002A6912021143816124E0206800F0E8FBCC
:1018E0002068C26908210A43C2612068C169B943FE
:1018F000C1612068C1692A6912E0206800F014FC07
:101900002068C1690122D2021143C1612068C26905
:10191000012189028A43C2612068C1692A691202D1
:101920001143C1610120707700203077F8BD70B598
:10193000040005D025462035687F002802D006E047
:10194000012070BD00202877204600F00AF8022010
:101950006877211D206800F0E7FA012068770020F1
:1019600070BD70477047000010B504460068012242
:1019700000F01CFB0A482168814205D009488142D9
:1019800002D00948814204D1486C0122D20310439D
:10199000486420680168012211430160002010BDE5
:1019A000002C0140004401400048014010B5064CA5
:1019B000A068401CA06000F07BFEA068800701D1F9
:1019C00001F020FA10BD0000040000207047000064
:1019D00000B500680E4987B0884216D10D48C2692B
:1019E000012149040A43C261C069084005900420EE
:1019F0000090122001900121032003900291049194
:101A000009206946C006FFF73DF807B000BD000099
:101A10000044004000100240FFB506460446603610
:101A2000707A83B00D46202858D1002D0CD005982F
:101A3000002809D00120A1680003814207D1206954
:101A4000002804D1E80702D0012007B0F0BD307AA9
:101A5000012843D0012030720020E06621207072FE
:101A6000FFF7BAF801902746403705983882059865
:101A7000788218E0788A401E7882069800900022CA
:101A800080212046019B00F0B1FC002818D10120E4
:101A9000A1680003814202D12069002812D0216888
:101AA000287808856D1C788A0028E3D10698009074
:101AB000002240212046019B00F098FC002808D01D
:101AC0000320C2E728882168C005C00D0885AD1C29
:101AD000E9E72020707200203072B6E70220B4E7F8
:101AE000FEE70000F0B52D4887B042690121890466
:101AF0000A43426142690A400592426909010A4368
:101B0000426142690A400592426949110A434261B1
:101B1000406901220840059011462148FFF755F819
:101B2000092001220821C006FFF74FF8FF200130ED
:101B3000002402266A4651C269461A48FEF7A2FFEF
:101B400001251127029469461548019700950394D1
:101B5000FEF798FF69461248009602950194FEF739
:101B600091FF13206A4631C209206946C006FEF77C
:101B700089FF082000900920694601970295039487
:101B8000C006FEF77FFFA8026A4651C209206946D7
:101B9000C006FEF777FF07B0F0BD0000001002405E
:101BA000001400480004004810B510480E490160B8
:101BB000FF2105314160002107228160120201618D
:101BC000C2600122416152028261016241620822C7
:101BD00081620723C261C36242630163FFF7C2FBF4
:101BE000002800D0FEE710BD003001407800002042
:101BF00010B5164888B014490160002403218460A0
:101C00004160FF21046191318461C160FFF70CFDE7
:101C1000002800D0FEE70D48FFF789FE002800D01D
:101C2000FEE760200090C8200190029400226946DF
:101C300004940648FFF713FE002800D0FEE703488F
:101C4000FFF7F4FD08B010BD00200040DC000020CC
:101C500010B50C480A490160E121490241600021A8
:101C60008160C16001618161C1610C2201624261D8
:101C70004162FEF7B7FF002800D0FEE710BD00006C
:101C8000004400405C010020704700008307FF22F1
:101C9000DB0E9A408907090E994000280BDA0007ED
:101CA000000F0838830808489B001818C36993433D
:101CB0000B43C3617047830804489B001B181868D6
:101CC000904308431860704700ED00E000E400E036
:101CD0007047F8B50F460B4615460092032104469F
:101CE0000022C90200F01BF82026002812D13B4632
:101CF000002280212046009500F05CF8002809D1E0
:101D000003213B46002249022046009500F007F8D7
:101D1000002803D0206E304320660320F8BDF8B5BC
:101D20001D4617460E4604463DE0032149028E42F9
:101D300005D1002F03D1017B684601700078681C33
:101D400031D0002D05D0FEF747FF0699401AA84272
:101D500029D320684168E022914341606068C11F37
:101D6000FD390CD10121A068C903884202D0491174
:101D7000884204D12068016840229143016001201B
:101D8000A16A4003814207D121680A6882430A6040
:101D900021680A6802430A6001204034607700200D
:101DA00020770320F8BD206881683140B942BCD15A
:101DB0000020F8BDF8B51D4617460E46044633E030
:101DC000681C31D0002D05D0FEF706FF0699401A99
:101DD000A84229D320684168E022914341606068AD
:101DE000C11FFD390CD10121A068C903884202D06E
:101DF0004911884204D12068016840229143016062
:101E00000120A16A4003814207D121680A68824308
:101E10000A6021680A6802430A6001204034607742
:101E2000002020770320F8BD206881683046884371
:101E300004D00020B842C3D10020F8BD0120F9E74A
:101E4000704710B5FEF744FFFFF7E8FB10BD30B553
:101E500091B00A200090012007900390C0030A90DF
:101E60000320022580041021099500240B90049181
:101E70000C946846FFF78AF8002800D0FEE7072098
:101E80000D900F9401210E9510940DA8FEF77AFF86
:101E9000002800D0FEE7FFF71FF87D21C900FEF7FC
:101EA00045F9FFF7A3FB0420FFF792FB0022114640
:101EB000501EFEF763FF11B030BD000013480168EB
:101EC0000122114301604168114A114041600168DB
:101ED000104A11400160016801229204914301609F
:101EE00041683F22120491434160C16A0909090116
:101EF000C162016BFF22D43291430163416B4908F7
:101F000049004163002181607047000000100240D9
:101F10000CB8FF08FFFFF6FE10B50248FFF7D4FB30
:101F200010BD00001C010020F0B502681A4B01240E
:101F3000A4071A4D984203D0A04201D0A84203D171
:101F40007026B2434E683243154E164F98420AD05F
:101F5000A04208D0A84206D0134CA04203D0B04201
:101F600001D0B84204D103242402A243CC68224306
:101F70008024A2434C69224302608A68C2620A68D4
:101F80008262984203D0B04201D0B84201D10969BF
:101F9000016301214161F0BD002C014000040040BB
:101FA00000440140004801400020004010B50123DA
:101FB000046A8B409C430462036A8A4013430362B1
:101FC00010BD0000F0B5026A520852000262056AB4
:101FD000436882697024A24392080C6892001443FB
:101FE000022295438A68134E2A43114DA84204D019
:101FF000B04202D0104FB84206D10827BA43CF688A
:102000001743042297433A46A84204D0B04202D074
:10201000094DA84206D103252D02AB434D691D434E
:102020008B692B4343608461496841630262F0BD60
:10203000002C0140004401400048014070B5026A94
:1020400010239A430262046A4368826973252D0251
:10205000AA430D682D021543202294438A68120179
:102060002243104CA04208D11446CA688026B443CB
:10207000120122434024A24305E00B4CA04202D0AF
:102080000A4CA04208D10324A402A3434C69A40033
:102090001C438B699B0023434360856149688163CE
:1020A000026270BD002C0140004401400048014024
:1020B00070B5026AFF2301339A430262046A4368DF
:1020C000C2697025AA4392080D6892001543012247
:1020D000520294438A6812022243104CA04207D154
:1020E000C414A243CC68240222430615B24305E07F
:1020F0000B4CA04202D00B4CA04208D10324240375
:10210000A3434C6924011C438B691B012343436097
:10211000C5614968C163026270BD0000002C0140C6
:10212000004401400048014030B5026A01231B030E
:102130009A430262056A4268C36973242402A34376
:102140000C6824021C4301235B039D438B681B0323
:102150002B430A4DA84205D0094DA84202D0094D93
:10216000A84205D10125AD03AA434D69AD012A431B
:102170004260C46149680164036230BD002C0140C3
:10218000004401400048014010B5818CC90707D0C8
:1021900001684A6801235B049A43836A1A434A60D0
:1021A000818C890707D501684A6801231B049A437B
:1021B000C36A1A434A60818C490707D501684A6897
:1021C00001239B049A43036B1A434A60818C0907DD
:1021D00007D501684A680123DB039A43436B1A431E
:1021E0004A60818CC90607D50268916801231B03E8
:1021F0009943836B19439160818C890607D50168E7
:102200008A6801235B039A43C36B1A438A60818CFB
:10221000490612D503685A6801210905046C8A43EE
:1022200022435A60026C8A4207D102685168032334
:102230005B059943436C19435160818C090607D5AE
:1022400001684A680123DB04806C9A4302434A60B8
:1022500010BD0000F8B500260446C666FEF7BCFCBB
:1022600005461449206888421DD10068124F0007B6
:1022700009D501212B46002249052046009700F090
:10228000B5F800280DD12068006840070BD5012162
:102290002B46002289052046009700F0A7F8002869
:1022A00001D00320F8BD202060346072A072267235
:1022B0000020F8BD00380140FFFFFF01F8B50446DB
:1022C0002369A268E5691A43636910202B43002142
:1022D00025681A432B680E463E4F3B4013432B6044
:1022E00023685A6803252D03AA43E5682A435A60E8
:1022F000236AA26925681A43AB680B273F02BB43D8
:102300001343AB60344A2568954210D1334A126BAF
:102310009207920F0ED0012A05D0022A05D0032A77
:1023200009D1022007E0042005E0082003E02C4A40
:10233000954200D100200122E369D203934224D1C7
:1023400000280CD002280DD0042813D0082817D05C
:1023500001260A0912010807400F10432FE0FEF77B
:10236000C1FD09E061681F4A48088018FDF7DEFEDC
:1023700081B2EEE7FEF7C6FD616840004A08F4E767
:102380006168012248081204EFE7002808D00228FB
:1023900009D004280BD0082814D001263046F8BDF7
:1023A000FEF7A0FD05E061680F4A48080CE0FEF763
:1023B000A9FD61684A088018FDF7B8FE80B221685F
:1023C000C860EBE7616848088018FDF7AFFE80B28F
:1023D000E860E3E7F369FFEF0038014000100240D6
:1023E000004400400024F40000127A00FFB581B0E0
:1023F00017460E4604460A9D1DE0681C1BD0002DA2
:1024000005D0FEF7E9FB0499401AA84213D92068C9
:102410000168FF22A1329143016020688168490868
:1024200049008160202060346072A0720020207218
:10243000032005B0F0BD2068C1693046884304D050
:102440000020B842D9D00020F3E70120F9E70000CE
:102450000FB410B503A9044B044A029800F042F8E7
:1024600010BC08BC04B0184749290008200000200F
:102470002021020C01D010211046020A01D0104682
:102480000839020901D01046091F820801D0104600
:10249000891E420801D0881E7047081A704730B460
:1024A0007446641E2578641CAB4200D21D46635DF1
:1024B0005B00E31830BC184702E008C8121F08C1CF
:1024C000002AFAD170477047002001E001C1121FB5
:1024D000002AFBD1704700000149086070470000E6
:1024E00024000020FFB58DB00F460546002606E00B
:1024F00025280AD0109A0F9990476D1C761C2878D1
:102500000028F5D1304611B0F0BD00240121674A02
:10251000009400E004436D1C2B780846203B984053
:102520001042F7D128782E2815D10420044368786A
:102530006D1C2A280AD101CF6D1C00900BE0009978
:102540000A225143303940186D1C0090287801460A
:1025500030390929F3D92878692843D006DC0028C6
:10256000D0D063280BD0642804D13BE073280FD06F
:1025700075284CD0109A0F999047761C94E03878C3
:10258000694608720020487202A80190012003E009
:10259000386801900020C0433F1D61070CD500241E
:1025A00000E0641C00998C420FDA8442F9DB019947
:1025B000095D0029F5D108E0002400E0641C844294
:1025C000FCDB0199095D0029F8D1361907E0019873
:1025D00001990078491C0191109A0F999047641E47
:1025E000F5D261E00A20019001CF002802DA4042D2
:1025F0002D2102E0210504D52B216A46117201210B
:1026000003E0E10701D02021F7E70C9104E00A2064
:10261000019001CF00210C910BA90B9108E00199C9
:10262000FDF784FD0A460B993032491E0B910A7062
:102630000028F4D10B9803A9081A203001906007F4
:1026400001D5009801E0012000900199884203DD46
:1026500001460198081A00E000200024009006E0DE
:1026600002A8109A005D0F999047641C761C0C9884
:102670008442F5DB04E0109A30200F999047761CD5
:102680000099481E00900029F5DC08E00B980B9992
:102690000078491C0B91109A0F999047761C01996C
:1026A000481E01900029F1DC6D1C28E70928010073
:1026B000FEB56C486C4D00786C4E8207920F08D0C6
:1026C0002F1FE81E012A24D0022A46D0032A68D0F0
:1026D000B4E065490322C91E01A8FDF74EFD01982B
:1026E00000F07AF90090032269465F48FDF745FD46
:1026F0002A78A2215D48FDF752FD5C486A78A22144
:10270000A230FDF74CFDAA78A2215948FDF747FDFC
:1027100094E000240C20B9686043411868460170B9
:10272000FF2141705048C01E817868468170009832
:1027300000F052F90190032201A94B48FDF71DFD5D
:102740002878305549486978A2300155A978A230D7
:102750000155641CA22CDDDB70E0444F0024A2373D
:102760004148001F8068410868460170FF214170A0
:102770003D48C01E817868468170009800F02CF9B1
:102780000190032201A93848FDF7F7FC287830555D
:10279000687838553648A9780155641CA22CDFDBCF
:1027A0004CE080780A210090FDF7C0FC002800D1A1
:1027B00001200099081AFDF7D8FD2E49FDF797FD75
:1027C0000446FF212D31B868FDF7B0FC0846962974
:1027D00002D3FF212E31081AFDF7D2FD2146FDF765
:1027E00049FD04460098FDF7CBFD2146FDF73AFD73
:1027F000FDF7CDFD00F064F9C7B200241A48694620
:10280000C01E02780A7042784A708078002826D06C
:102810008F70009800F0E0F80190032201A912489F
:10282000FDF7ABFC2878305510486978A230015587
:10283000A978A2300155641CA22CDFDB0C48717909
:102840004379A23842790CA0FFF702FE72B6084A1B
:1028500006481146A23900F073FA62B6FEBD0020A8
:102860008870D6E71000002008000020CC0100206E
:1028700010030020000016432564202564202564F1
:102880000A0000001FB5FEF7EBF8012003900A488C
:10289000029000200190694601A8FEF749F800283F
:1028A00002D0FEF795F804E0FEF792F80098401C7D
:1028B00000D0012004B010BD007C000810B5012438
:1028C0004318A402A34201D9012010BD064B0918E8
:1028D00006E0002A03D0C41824781470521C401C4F
:1028E0008142F6D8002010BD007C0008F8B50D46E6
:1028F00007460121401989021646884201D9012064
:10290000F8BD002E03D0FEF7ABF8002414E002203F
:10291000F8BD31194878097802020A430948E119DB
:102920000918D30F0120FEF75DF8002803D0FEF749
:102930004FF80420F8BDA41CAC42EAD3FEF748F8D7
:102940000020F8BD007C000813B56423012269460D
:102950000248FFF761F800981CBD00005C010020F0
:1029600010B519490A5C521C0A54032806D00128E4
:102970000DD002280FD0042818D00FE0C8781349D2
:102980004007000F085A12490968486306E0487872
:1029900000F0ACFA02E0887800F098FAFFF772FFD6
:1029A000094A08210020FFF7A1FF10BD06490122B6
:1029B0000C390B78104698430870121A012105480B
:1029C000FEF703F910BD000010000020462F00089C
:1029D000DC0000200014004871B581B068464579DC
:1029E0008479002D21D006792B213046FDF79EFBFE
:1029F0002B214143711A06225143CEB2FF232A46AE
:102A00007243591B120A9A1A9E1B75432D0A5B1BAF
:102A10006343614362431D0A090A120A0300FFF778
:102A20003EFD050A0E13181C210004704470008836
:102A3000240420437CBD68460470457002E068466B
:102A400002704470817011E06846017044708570B6
:102A50000CE068460170427002E068460570417003
:102A6000847003E068460470417082700146897882
:102A70000088090408437CBD052808D2C100064827
:102A800008184178012902D18078002801D000205F
:102A9000704701207047000040000020052808D240
:102AA000C100064808184178002902D18078002822
:102AB00001D0002070470120704700004000002036
:102AC000F0B513B406460199FDF768FD04460D46BE
:102AD00002460B4630460199FDF752FD0646019825
:102AE000224B0F4600280CDA00223046FDF7ECFDA1
:102AF0000CD900221E4B30463946FDF7F9FD1DD298
:102B000014E000223046FDF7DFFD08D20022194B09
:102B100020462946FDF734FD04460D460EE000220E
:102B2000134B30463946FDF7E3FD07D80022114B21
:102B300020462946FDF780FC04460D460E4A0F4B01
:102B400020462946FDF7D4FD06D300220C4B204633
:102B50002946FDF7B9FD02D20120FFF7BDFC204652
:102B60002946FDF759FD03B0F0BD00000000E0BFAD
:102B70000000E03F0000F03F0000C0FFFFFFDF412A
:102B80000000E0C108B5FEF7ABF8FFF760F9FEF70B
:102B9000A9FFFFF75DF8FFF707F851484F490160BB
:102BA0000025272185604160056145614D498561AA
:102BB000C160FEF739FD002800D0FEE7FFF718F8E6
:102BC00047484949B43822C0484941600160083843
:102BD000FEF744F8002800D0FEE700221146162038
:102BE000FEF7CCF81620FEF7BFF80927FF060122F2
:102BF00008213846FDF7E9FF012189023846FDF733
:102C0000DFFF01243A4E012800D1347030780121D1
:102C1000201AC2B23748FDF7D8FF00231A463649BA
:102C200036A00094FFF714FC01213846FDF7C8FFD9
:102C3000002805D1FFF726FE014634A0FFF708FC67
:102C40002B4AF5600C32082100203561FFF736FE73
:102C500027480C30057100F0B5F82148FEF728FD33
:102C60001F484038FEF718FD1D484038FEF75FFE4C
:102C70001B4800214038FEF777FE1948B438FEF7AC
:102C80001FF80024E0B2FFF7F7FE002805D0E0B2FD
:102C9000FFF766FEE0B200F00FF9042C03D0641CCD
:102CA000052CEFDBE9E70420FFF7F8FE0028E4D06D
:102CB000042000F001F9FDF78FFF1849496A401A16
:102CC00017498842D9D930780028D6D001223570EA
:102CD00011460848FDF779FFCFE7000000480140A2
:102CE0001C0100201A41000000300040FF0F0000CE
:102CF0000400002000140048302F000825730A76D5
:102D000025642E25642E25640A00000065655F6633
:102D10006F726D61743A2025640A00004000002043
:102D2000EE02000010B50446012060700020A07083
:102D3000FDF752FF606010BD002141708170704747
:102D4000F7B5052304221C491C48FEF789FB1C4DDE
:102D5000002418211A48FDF729FA00200723012230
:102D600001991F1A0E5D1146B9400E4201D0F82696
:102D700000E0C0262E54009E365D0E4201D0F8269B
:102D800000E0C0262F183E72029E365D0E4201D032
:102D9000F82100E0C0212E18401C31740828DFDB28
:102DA0001821074800F0B4F80421034800F0B0F8F7
:102DB000641CA22CCDDBFEBD0000002078000020AA
:102DC0002800002010B50C4C0C49E0784007000F9B
:102DD000085A0B490968486320467F210B38017067
:102DE000FF21417008218170607800F07FF8A078A1
:102DF00000F06CF810BD000010000020462F000805
:102E0000DC000020F8B502212848FDF7D9FE012595
:102E10002749281A48700926F60602213046FDF790
:102E2000CFFE234C281A203C607001213046FDF76C
:102E3000C7FE281A607229021E48FDF7C1FE6074A1
:102E400010213046FDF7BCFE281A60760025EE0002
:102E5000A15D002902D0012907D00AE0301942788B
:102E6000012A06D1FFF75EFF19E030194278002AE7
:102E700004D0012D05D0022D03D010E0FFF75CFF38
:102E80000DE001290BD137197878012807D1FDF71A
:102E9000A3FE7968401AFA2801D93846E2E73019CA
:102EA00040786D1CA055052DD1DBF8BD00140048FD
:102EB0006000002000040048052804D2024A0121D5
:102EC000C0008018817070474000002010B50B21B1
:102ED000FDF72CF90348405C1921484302498870EA
:102EE00010BD0000562F00080500002010B51B2162
:102EF000FDF71CF905481A2905D00A225143017033
:102F0000FF21417010BD00210170FAE7050000208B
:102F100010B5064A07E013689C68A407FCD504882E
:102F2000DC60801C891E0029F5DC10BD78000020C3
:102F30004154583456430A64656B754E756B656D24
:102F400020323032320000005000A000DC000401CA
:102F50004001680191010001020304050607080908
:102F60000A00000000000000000102030406070838
:102F70000900000000010203040000009C2F00086B
:102F80000000002028000000B8240008C42F00081A
:102F900028000020B0070000C8240008000000003E
:102FA0000000000000000000000000000000000021
:102FB000000000000000000000127A000000000085
:042FC000000000000D
:04000005080000C12E
:00000001FF
