:020000040800F2
:10000000C00B0020D500000871120008C9100008BC
:1000100000000000000000000000000000000000E0
:10002000000000000000000000000000291400088B
:100030000000000000000000B91200082B140008A6
:100040000501000805010008050100080501000878
:100050000501000805010008050100080501000868
:100060000501000805010008050100080501000858
:100070000501000805010008050100080501000848
:100080000501000800000000000000000501000854
:100090000000000005010008FD140008050100082B
:1000A0000000000005010008050100080501000826
:1000B0000501000800000000050100080501000816
:1000C0000348854600F05AF800480047511A0008D6
:1000D000C00B00200C4880F308880C480168090E0A
:1000E0000B4A914205D10B480B4901600B480C4962
:1000F00001600C4880470C480047FEE7FEE7FEE73A
:10010000FEE7FEE7FEE70000C00B00200400000051
:100110001F00000018100240010000000000014014
:1001200000000000A1140008C100000830B50B4613
:10013000014600202022012409E00D46D5409D42C1
:1001400005D31D469540491B254695404019154647
:10015000521E002DF1DC30BDD2B201E00270401C15
:10016000491EFBD270470022F6E710B513460A4637
:1001700004461946FFF7F0FF204610BD064C012546
:10018000064E05E0E36807CC2B430C3C984710343F
:10019000B442F7D3FFF798FFA81B0008C81B00085C
:1001A00031B500F0B3F8009C0546601C00D0641C1B
:1001B00000F0ACF8401BA042FAD338BDF8B50023DC
:1001C00089E001249C402A46A44622407ED04C6807
:1001D000022C01D0122C0CD1DC08A40027183C6A98
:1001E0005D07ED0E0F26AE40B4430E69AE402643C8
:1001F0003E6205685E000324B4400F79A543BF0743
:10020000BF0FB7402F4307604D68012D05D0022D69
:1002100003D0112D01D0122D0ED18568CF68A543D2
:10022000B7402F43876047686546AF430D79ED06B9
:10023000ED0F9D403D434560C568A5438C68B440C3
:100240002C43C4604C68E40044D5264CA5690126C3
:100250003543A561A4699D0834400094224CAD004B
:100260002F19BC689D072E0F0F25B540AC430925FB
:10027000ED06A84201D100250AE01C4DA84201D19B
:10028000012505E01A4DA84201D1022500E005250F
:10029000B5402543BD60174C25684E689543F6036D
:1002A00000D51543256065684E689543B60300D5B3
:1002B00015436560A5684E689543F60200D5154361
:1002C000A560E5684E689543B60200E002E000D5FF
:1002D0001543E5605B1C0A681546DA4000D070E7FC
:1002E000F8BD00000010024000000140000400487A
:1002F000000800480004014042694A4042617047DA
:10030000002A01D08161704781627047014800680E
:10031000704700000000002070B5040005D025469D
:100320006035687A002802D006E0012070BD002008
:100330002872204600F0A4FE24206872206801681C
:10034000490849000160204601F0AAFA0128EDD0D1
:10035000606A002802D0204601F008FA206841684F
:100360000922D20291434160206881682222914390
:1003700081602068816808221143816020680168DB
:10038000012211430160204601F056FA70BD0000C1
:1003900002480168491C016070470000000000200D
:1003A00010B506480168102211430160002000F0DA
:1003B00007F800F017F8002010BD000000200240F0
:1003C00010B5044600F0E8F87D21C900FFF7AEFE45
:1003D00000F06CFC00222146501E00F02FF8002097
:1003E00010BD000008B50F488169012211438161E9
:1003F000816911400091C26901040A43C261C06968
:100400000022084000901146501F00F017F800220B
:100410001146901E00F012F800221146501E00F006
:100420000DF808BD00100240C106C90E0120884029
:10043000014908607047000000E100E010B500F0DD
:1004400019FF10BDF8B505464E480E460068C007B6
:10045000C00FB0420AD24B480168490849003143F5
:1004600001600068C007C00FB04270D12878464CC8
:10047000800705D56068F0218843A968084360605B
:100480002878C00753D06868012817D0022818D0F0
:10049000032819D021688907002958DA616889087A
:1004A000890001436160FFF731FF69680746012950
:1004B00013D002291DD0032927D034E021688903F5
:1004C000EAE721688901E7E7616BC903E4E7FFF721
:1004D0001DFFC11B2D48814223D860680007800F93
:1004E0000128F4D123E0FFF711FFC11B2748814207
:1004F00017D860680007800F0228F4D117E0FFF7D3
:1005000005FFC11B214881420BD860680007800F9E
:100510000328F4D10BE0FFF7F9FEC11B1B48814211
:1005200001D90320F8BD60680007800FF3D115489A
:100530000168C907C90FB1420BD9016849084900D0
:10054000314301600068C007C00FB04201D00120F4
:10055000F8BD2878400706D560680721090288435E
:10056000E9680843606000F02DF86168084A0906F0
:10057000090F515CC840074908600020FFF720FFC1
:100580000020F8BD00200240001002408813000047
:10059000901B00080400002001480068704700001C
:1005A000040000200448054900684968044A4905D8
:1005B000490F515CC8407047040000200010024001
:1005C000A01B000830B516A30FCB89B06C460FC432
:1005D00017A30FCB0FC41A494A680C2014460440D5
:1005E0001848042C05D0184B082C04D00C2C00D132
:1005F000184609B030BD9402240F6D462C5DC96ABF
:1006000004AD0907090FD203695C920F022A02D0D8
:10061000032A00D11846FFF789FD6043E9E700008F
:1006200002030405060708090A0B0C0D0E0F101033
:100630000102030405060708090A0B0C0D0E0F1032
:100640000010024000127A00006CDC02FEB5044685
:100650000078F04EF04DC00748D068680007800F62
:1006600001281FD068680007800F022804D168683D
:10067000C003800F022815D06168012919D001201C
:100680008004002901D0052917D02968B1432960C9
:10069000296881432960606800281BD0FFF736FE77
:1006A000074613E02868800320D56068002876D0CC
:1006B0001CE0286830432860EDE729680143296081
:1006C000F7E7FFF723FEC01B642869D8286880037A
:1006D000F7D50BE0FFF71AFE074604E0FFF716FE1A
:1006E000C01B6428F1D828688003F7D420788007DD
:1006F0003ED568680007800F14D068680007800F37
:10070000022804D16868C003800F01280AD0E0687D
:10071000002828681DD0012108432860FFF7F6FD56
:1007200007460BE0286880070BD5E068012836D122
:1007300007E0FFF7EBFDC01B0228C6D8286880073A
:10074000F7D52868F82188432169C9000843286043
:100750000EE0400840002860FFF7D8FD074604E09F
:10076000FFF7D4FDC01B0228AFD828688007F7D454
:100770002078000724D5E0690028686A11D001219B
:1007800008436862FFF7C2FD074604E0FFF7BEFDBD
:10079000C01B022899D8686A8007F7D510E036E1B7
:1007A000D1E0400840006862FFF7B0FD074604E072
:1007B000FFF7ACFDC01B022887D8686A8007F7D412
:1007C000207804274007002861DA00200190E869BA
:1007D000C00008D4E969B8060143E961E96901404C
:1007E0000120009101908D480168C90511D401686C
:1007F000821511430160FFF789FD009005E0FFF7C6
:1008000085FD0099401A642897D884480068C0057F
:10081000F5D5A06801280AD0002801D0052811D0FC
:10082000286A400840002862286AB84302E0286A23
:10083000012108432862A068002812D0FFF766FD56
:1008400000900AE0286A38432862F0E7FFF75EFD6F
:100850000099411A7248814275D8286A8007F5D5F7
:100860000DE0FFF753FD009006E0FFF74FFD009904
:10087000411A6B48814266D8286A8007F5D40198EE
:10088000002804D0E969012000078143E96120784C
:10089000C00635D5606901280CD0401D686B24D096
:1008A00038436863686B400840006863FFF72EFDBB
:1008B000074622E0686B38436863686B0121084390
:1008C0006863FFF723FD074604E0FFF71FFDC01B29
:1008D000022838D8686B8007F7D5686BF821884301
:1008E000A169C900084368630AE0B8436863F4E794
:1008F000FFF70CFDC01B022825D8686B8007F7D4D2
:100900002078800637D568680007800F032813D049
:1009100068680007800F022804D16868C003800F50
:10092000032809D0206A0028686B16D0304368631A
:10093000FFF7ECFC06460CE0686BC0031BD5206A91
:10094000012864D117E05BE0FFF7E0FC801B022880
:1009500056D8686BC003F7D50DE0B0436863FFF766
:10096000D5FC064604E0FFF7D1FC801B022847D8DF
:10097000686BC003F7D4606A002846D0696809072D
:10098000890F022943D0012636060228286805D09F
:10099000B0432860FFF7BAFC044633E0B043286058
:1009A000FFF7B4FC074604E0FFF7B0FCC01B0228C9
:1009B00026D828688001F7D4E86A216B0009000175
:1009C0000843E862A16AE06A084369687B22D203AF
:1009D000914308436860286830432860FFF796FC1D
:1009E000044604E0FFF792FC001B022808D82868A0
:1009F0008001F7D509E0FFF789FC001B022801D927
:100A00000320FEBD28688001F5D40020FEBD012032
:100A1000FEBD000000000100001002400070004018
:100A200088130000F8B5040007D00026254640359D
:100A3000A662687F002802D005E00120F8BD2E776D
:100A4000204600F04BF802236B77206801684022B3
:100A5000914301600721E0680902884201D9002220
:100A600001E0012212030F273F02B84202D0884260
:100A700000D0A662276B002F05D1884201D92363DD
:100A800001E001202063A16860686369084321696F
:100A9000194308430123A1695B0219400843E16936
:100AA0000843216A0843A16A084321680860616B12
:100AB000606AA36908431B0C0427E1683B401943A3
:100AC00008432168104348602068C1697A02914355
:100AD000C1612666012068770020F8BD00B5006876
:100AE0000D4987B0884215D10C48826981140A43A8
:100AF0008261806908400590A0200090022001904A
:100B00000021032003900291049109206946C00648
:100B1000FFF754FB07B000BD003001400010024059
:100B2000FFB5064604464036307F002781B00D46AB
:100B3000012809D001203077FFF7E8FB0090707F93
:100B4000012804D002279DE0022005B0F0BD002D51
:100B500072D0039800286FD00320707700202066A1
:100B6000A5630399A1870399E1872064B080F08091
:100B70002065E0640121A068C903884205D120688E
:100B8000016801229203114301602068016849064F
:100B900003D401684022114301600720E16800028C
:100BA0008142606823D9002802D0E08F01281AD141
:100BB00021682888C86005E020688168890706D513
:100BC0002988C160E08F401EE087AD1C0BE00498CF
:100BD00000283ED0401C06D0FFF798FB0099411A30
:100BE0000498814235D2E08F0028E5D136E0002814
:100BF00002D0E08F01282ED1E08F012803D921688F
:100C00002888C8600CE02168287808730FE0206805
:100C10008168890711D5E18F012906D92988C1602A
:100C2000E08F801EE087AD1C15E029780173E08F0E
:100C3000401EE0876D1C0EE023E00498002808D0D9
:100C4000401C08D0FFF762FB0099411A04988142CA
:100C500001D3032716E0E08F0028D8D12046009A60
:100C6000049900F02AFB002801D020202066A0680B
:100C7000002803D12068C16880680090206E002899
:100C800000D00127012070770020307738465CE7DC
:100C9000042204490428086902D09043086170477F
:100CA0001043FBE700E000E070470000094910B581
:100CB000401E884201D9012010BD074C606103210C
:100CC000081F00F0D7FA0020A06107202061002053
:100CD00010BD0000FFFFFF0000E000E010B5FFF7CF
:100CE000E3FF10BD7047704770B5040005D025467E
:100CF0002035687F002802D006E0012070BD00206A
:100D00002877204600F00AF802206877211D206825
:100D100000F0FCFB01206877002070BD08B50B4A8D
:100D200001680B48914205D1C26981150A43C2612D
:100D3000C06908E0074A914207D18269012189040C
:100D40000A43826180690840009008BD002000408D
:100D500000100240004801400222014620314A773B
:100D6000026813680120034313604877002070472E
:100D70000268D36801210B43D360006802680A430C
:100D8000026000207047704770B504460068016932
:100D90000025C9438907002915DBC168C9438907B4
:100DA00011D4E91E01610120207720688069800745
:100DB000204602D0FFF7E7FF04E000F0B1F820463C
:100DC00000F032F9257720680169C943490717D433
:100DD000C168C943490713D40421C94301610220F2
:100DE0002077206880698005800F204602D0FFF7B9
:100DF000CAFF04E000F094F8204600F015F92577CA
:100E000020680169C943090716D4C168C9430907A5
:100E100012D40821C9430161042020772068C069E9
:100E20008007204602D0FFF7AEFF04E000F078F81C
:100E3000204600F0F9F8257720680169C943C90602
:100E400017D4C168C943C90613D41021C94301612D
:100E5000082020772068C0698005800F204602D0D6
:100E6000FFF791FF04E000F05BF8204600F0DCF8AB
:100E7000257720680169C943C90708D1C168C943FA
:100E8000C90704D1891E0161204600F0F1F82068ED
:100E90000169C943090609D4C168C943090605D4D3
:100EA0008021C94301612046FFF71CFF20680169CA
:100EB000C943490609D4C168C943490605D440213C
:100EC000C9430161204600F0DAF820680169C9438E
:100ED000890609D4C168C943890605D42021C943BC
:100EE00001612046FFF7FFFE70BD000000B50068FD
:100EF000094985B088420CD102200090122001904F
:100F00000120029000200390049069460348FFF7F7
:100F100055F905B000BD0000002000400004004865
:100F20007047F8B5064604462036307F0D46012846
:100F30000DD001203077022070770427002A08D0D6
:100F4000042A16D0082A2AD00C2A4DD137E00220D4
:100F5000F8BD206800F028FB206881690822114351
:100F6000816120688169B9438161206881692A694A
:100F700012E0206800F054FB206882690121C90258
:100F80000A43826120688169012292029143816152
:100F9000206881692A6912021143816124E0206876
:100FA00000F078FB2068C26908210A43C26120680A
:100FB000C169B943C1612068C1692A6912E020682A
:100FC00000F0A4FB2068C1690122D2021143C16173
:100FD0002068C269012189028A43C2612068C1690F
:100FE0002A6912021143C161012070770020307715
:100FF000F8BD70B5040005D025462035687F00286F
:1010000002D006E0012070BD00202877204600F0C5
:101010000AF802206877211D206800F077FA012085
:101020006877002070BD70477047000010B5044617
:101030000068012200F0ACFA0A482168814205D01C
:101040000948814202D00948814204D1486C0122FA
:10105000D2031043486420680168012211430160F3
:10106000002010BD002C0140004401400048014018
:1010700010B509200821C006FFF73EF910BD7047E2
:1010800000B500680E4987B0884216D10D48C26984
:10109000012149040A43C261C06908400590042047
:1010A00000901220019001210320039002910491ED
:1010B00009206946C006FFF781F807B000BD0000AF
:1010C0000044004000100240FEE70000F0B52D484B
:1010D00087B04269012189040A43426142690A409A
:1010E0000592426909010A43426142690A40059238
:1010F000426949110A4342614069234F0840012275
:10110000059011463846FFF7FBF809200022082118
:10111000C006FFF7F5F8FF200130002402266A46DA
:1011200051C269461948FFF749F81120012501907D
:1011300002946946009503943846FFF73FF86946E4
:101140003846009602950194FFF738F813206A4656
:1011500031C209206946C006FFF730F80820009028
:1011600009200294694601950394C006FFF726F80A
:1011700068026A4651C209206946C006FFF71EF898
:1011800007B0F0BD00100240001400480004004801
:1011900010B510480E490160FF2105314160002162
:1011A0000722816012020161C26001224161520284
:1011B000826101624162082281620723C261C362C7
:1011C00042630163FFF72EFC002800D0FEE710BD4C
:1011D00000300140B805002010B5164888B0144909
:1011E00001600024032184604160FF21046191318A
:1011F0008461C160FFF778FD002800D0FEE70D484C
:10120000FFF7F7FE002800D0FEE760200090C8201E
:10121000019002940022694604940648FFF781FE7B
:10122000002800D0FEE70348FFF760FE08B010BDBD
:10123000002000401C06002010B50C480A4901603F
:10124000E1214902416000218160C1600161816149
:10125000C1610C22016242614162FFF75DF8002822
:1012600000D0FEE710BD0000004400409C060020B6
:10127000704700008307FF22DB0E9A408907090EA2
:10128000994000280BDA0007000F08388308084847
:101290009B001818C36993430B43C36170478308CD
:1012A00004489B001B181868904308431860704757
:1012B00000ED00E000E400E07047F8B50F460B4693
:1012C00015460092032104460022C90200F01BF8D3
:1012D0002026002812D13B4600228021204600957E
:1012E00000F05CF8002809D103213B4600224902A6
:1012F0002046009500F007F8002803D0206E304308
:1013000020660320F8BDF8B51D4617460E46044674
:101310003DE0032149028E4205D1002F03D1017B1C
:10132000684601700078681C31D0002D05D0FEF7AA
:10133000EDFF0699401AA84229D320684168E022AF
:10134000914341606068C11FFD390CD10121A06843
:10135000C903884202D04911884204D1206801683B
:101360004022914301600120A16A4003814207D1DC
:1013700021680A6882430A6021680A6802430A6099
:10138000012040346077002020770320F8BD2068DA
:1013900081683140B942BCD10020F8BDF8B51D4686
:1013A00017460E46044633E0681C31D0002D05D0A8
:1013B000FEF7ACFF0699401AA84229D3206841687D
:1013C000E022914341606068C11FFD390CD10121C9
:1013D000A068C903884202D04911884204D120681C
:1013E00001684022914301600120A16A40038142CB
:1013F00007D121680A6882430A6021680A680243AB
:101400000A60012040346077002020770320F8BD77
:10141000206881683046884304D00020B842C3D198
:101420000020F8BD0120F9E7704710B5FEF7B0FFC6
:10143000FFF754FC10BD30B591B002250120039098
:101440001020099504900095C0020A9003208004A2
:1014500000240B900C946846FFF7F8F8002800D0A1
:10146000FEE707200D900F9401210E9510940DA812
:10147000FEF7E8FF002800D0FEE7FFF78DF87D219A
:10148000C900FEF753FEFFF711FC0420FFF700FC34
:1014900000221146501EFEF7D1FF11B030BD0000F2
:1014A000134801680122114301604168114A11404B
:1014B00041600168104A11400160016801229204F4
:1014C0009143016041683F22120491434160C16A27
:1014D00009090901C162016BFF22D4329143016302
:1014E000416B490849004163002181607047000059
:1014F000001002400CB8FF08FFFFF6FE10B50248CE
:10150000FFF742FC10BD00005C060020F0B5026849
:101510001A4B0124A4071A4D984203D0A04201D0CF
:10152000A84203D17026B2434E683243154E164F7F
:1015300098420AD0A04208D0A84206D0134CA0423C
:1015400003D0B04201D0B84204D103242402A24304
:10155000CC6822438024A2434C69224302608A68FB
:10156000C2620A688262984203D0B04201D0B84297
:1015700001D10969016301214161F0BD002C0140E5
:1015800000040040004401400048014000200040A9
:1015900010B50123046A8B409C430462036A8A40AD
:1015A0001343036210BD0000F0B5026A52085200F6
:1015B0000262056A436882697024A24392080C683B
:1015C00092001443022295438A68134E2A43114D18
:1015D000A84204D0B04202D0104FB84206D108272A
:1015E000BA43CF681743042297433A46A84204D02F
:1015F000B04202D0094DA84206D103252D02AB43CB
:101600004D691D438B692B43436084614968416385
:101610000262F0BD002C014000440140004801403E
:1016200070B5026A10239A430262046A43688269B1
:1016300073252D02AA430D682D02154320229443E1
:101640008A6812012243104CA04208D11446CA688D
:101650008026B443120122434024A24305E00B4CF0
:10166000A04202D00A4CA04208D10324A402A34302
:101670004C69A4001C438B699B0023434360856134
:1016800049688163026270BD002C01400044014042
:101690000048014070B5026AFF2301339A43026299
:1016A000046A4368C2697025AA4392080D689200D3
:1016B00015430122520294438A6812022243104CBD
:1016C000A04207D1C414A243CC68240222430615C9
:1016D000B24305E00B4CA04202D00B4CA04208D113
:1016E00003242403A3434C6924011C438B691B017D
:1016F00023434360C5614968C163026270BD000055
:10170000002C0140004401400048014030B5026A0D
:1017100001231B039A430262056A4268C36973246A
:101720002402A3430C6824021C4301235B039D4352
:101730008B681B032B430A4DA84205D0094DA842D4
:1017400002D0094DA84205D10125AD03AA434D6938
:10175000AD012A434260C46149680164036230BD3F
:10176000002C0140004401400048014010B5818C2C
:10177000C90707D001684A6801235B049A43836A5A
:101780001A434A60818C890707D501684A6801239A
:101790001B049A43C36A1A434A60818C490707D5E0
:1017A00001684A6801239B049A43036B1A434A6009
:1017B000818C090707D501684A680123DB039A4336
:1017C000436B1A434A60818CC90607D50268916849
:1017D00001231B039943836B19439160818C890614
:1017E00007D501688A6801235B039A43C36B1A43D8
:1017F0008A60818C490612D503685A68012109055F
:10180000046C8A4322435A60026C8A4207D1026800
:10181000516803235B059943436C19435160818CE4
:10182000090607D501684A680123DB04806C9A43E6
:1018300002434A6010BD0000F8B500260446C666A3
:10184000FEF764FD05461449206888421DD10068F2
:10185000124F000709D501212B46002249052046D9
:10186000009700F0B5F800280DD120680068400707
:101870000BD501212B46002289052046009700F058
:10188000A7F8002801D00320F8BD20206034607242
:10189000A07226720020F8BD00380140FFFFFF0152
:1018A000F8B504462369A268E5691A436369102004
:1018B0002B43002125681A432B680E463E4F3B40C0
:1018C00013432B6023685A6803252D03AA43E56858
:1018D0002A435A60236AA26925681A43AB680B271A
:1018E0003F02BB431343AB60344A2568954210D195
:1018F000334A126B9207920F0ED0012A05D0022AAA
:1019000005D0032A09D1022007E0042005E00820C1
:1019100003E02C4A954200D100200122E369D20362
:10192000934224D100280CD002280DD0042813D0D3
:10193000082817D001260A0912010807400F104392
:101940002FE0FEF72FFE09E061681F4A4808801863
:10195000FEF7ECFB81B2EEE7FEF734FE6168400073
:101960004A08F4E76168012248081204EFE70028FA
:1019700008D0022809D004280BD0082814D001264A
:101980003046F8BDFEF70EFE05E061680F4A4808D4
:101990000CE0FEF717FE61684A088018FEF7C6FBE8
:1019A00080B22168C860EBE7616848088018FEF7DC
:1019B000BDFB80B2E860E3E7F369FFEF0038014068
:1019C00000100240004400400024F40000127A009D
:1019D000FFB581B017460E4604460A9D1DE0681CFF
:1019E0001BD0002D05D0FEF791FC0499401AA842A7
:1019F00013D920680168FF22A13291430160206859
:101A00008168490849008160202060346072A072BA
:101A100000202072032005B0F0BD2068C169304667
:101A2000884304D00020B842D9D00020F3E7012039
:101A3000F9E702E008C8121F08C1002AFAD170476E
:101A40007047002001E001C1121F002AFBD170473E
:101A5000FEF7A6FCFFF7EFFCFFF738FBFFF7ECFB08
:101A6000FFF796FB244823490160272141600021AC
:101A700081600161214A4161C2608161FFF734F9EF
:101A8000002800D0FEE7FFF7A7FB00221146162032
:101A9000FEF7D4FC1620FEF7C7FC1748FFF768F9DD
:101AA00015484038FFF758F913484038FFF7A1FAB6
:101AB000114800214038FFF7B9FA0F4821223C2194
:101AC000B030FEF749FB0C483C21EC30FEF74BFBF5
:101AD0003C210B48FEF747FB72B6094A11463C39D8
:101AE00008463C3800F00EF862B63220FEF758FB8C
:101AF000F2E70000004801405C0600201A410000A7
:101B000084070020F7B5052310221F491F48FFF75F
:101B100007F81D4B002007271033182104464C43BB
:101B20000021019A7E1A155C0122B240154201D0B3
:101B3000F82500E0C02566189D55009D2D5C1542D6
:101B400001D0F82500E0C025F6183572029D2D5C05
:101B5000154201D0F82200E0C022491C3274082945
:101B6000DFDB401C3C28D8DB07492D22052352012E
:101B700010310648FEF7D4FF05231022024903481E
:101B8000FEF7CEFFFEBD000008000020B8050020D3
:101B9000000000000000000001020304060708091D
:101BA0000000000001020304C81B00080000002020
:101BB00008000000321A0008D01B000808000020AE
:101BC000B80B0000421A00080000000000127A0062
:04000005080000C12E
:00000001FF
