:020000040800F2
:10000000E0050020D5000008950F0008810E0008CB
:1000100000000000000000000000000000000000E0
:10002000000000000000000000000000DF0F0008DA
:100030000000000000000000DD0F0008E10F0008D4
:100040000501000805010008050100080501000878
:100050000501000805010008050100080501000868
:100060000501000805010008050100080501000858
:100070000501000805010008050100080501000848
:100080000501000800000000000000000501000854
:100090000000000005010008B1100008050100087B
:1000A0000000000005010008050100080501000826
:1000B0000501000800000000050100080501000816
:1000C0000348854600F05AF800480047B515000877
:1000D000E00500200C4880F308880C480168090EF0
:1000E0000B4A914205D10B480B4901600B480C4962
:1000F00001600C4880470C480047FEE7FEE7FEE73A
:10010000FEE7FEE7FEE70000E00500200400000037
:100110001F00000018100240010000000000014014
:100120000000000055100008C100000830B50B4663
:10013000014600202022012409E00D46D5409D42C1
:1001400005D31D469540491B254695404019154647
:10015000521E002DF1DC30BDD2B201E00270401C15
:10016000491EFBD270470022F6E710B513460A4637
:1001700004461946FFF7F0FF204610BD064C012546
:10018000064E05E0E36807CC2B430C3C984710343F
:10019000B442F7D3FFF798FF6C1600088C160008DE
:1001A00031B500F0B9F8009C0546601C00D0641C15
:1001B00000F0B2F8401BA042FAD338BDF8B50023D6
:1001C00089E001249C402A46A44622407ED04C6807
:1001D000022C01D0122C0CD1DC08A40027183C6A98
:1001E0005D07ED0E0F26AE40B4430E69AE402643C8
:1001F0003E6205685E000324B4400F79A543BF0743
:10020000BF0FB7402F4307604D68012D05D0022D69
:1002100003D0112D01D0122D0ED18568CF68A543D2
:10022000B7402F43876047686546AF430D79ED06B9
:10023000ED0F9D403D434560C568A5438C68B440C3
:100240002C43C4604C68E40044D5264CA5690126C3
:100250003543A561A4699D0834400094224CAD004B
:100260002F19BC689D072E0F0F25B540AC430925FB
:10027000ED06A84201D100250AE01C4DA84201D19B
:10028000012505E01A4DA84201D1022500E005250F
:10029000B5402543BD60174C25684E689543F6036D
:1002A00000D51543256065684E689543B60300D5B3
:1002B00015436560A5684E689543F60200D5154361
:1002C000A560E5684E689543B60200E002E000D5FF
:1002D0001543E5605B1C0A681546DA4000D070E7FC
:1002E000F8BD00000010024000000140000400487A
:1002F00000080048000401400069084000D00120C7
:10030000704742694A4042617047002A01D08161CA
:100310007047816270470000014800687047000024
:100320000000002070B5040005D025466035687ACD
:10033000002802D006E0012070BD0020287220466F
:1003400000F016FD24206872206801684908490001
:100350000160204600F090FF0128EDD0606A00287F
:1003600002D0204600F0EEFE206841680922D20249
:100370009143416020688168222291438160206816
:1003800081680822114381602068016801221143BD
:100390000160204600F03CFF70BD0000024801688B
:1003A000491C0160704700000000002010B506489D
:1003B0000168102211430160002000F007F800F0EE
:1003C00017F8002010BD00000020024010B50446C0
:1003D00000F0E8F87D21C900FFF7A8FE00F0B4FBAB
:1003E00000222146501E00F02FF8002010BD000012
:1003F00008B50F488169012211438161816911406B
:100400000091C26901040A43C261C0690022084028
:1004100000901146501F00F017F800221146901E60
:1004200000F012F800221146501E00F00DF808BD31
:1004300000100240C106C90E012088400149086031
:100440007047000000E100E010B500F0A5FD10BD10
:10045000F8B505464E480E460068C007C00FB042CA
:100460000AD24B48016849084900314301600068DD
:10047000C007C00FB04270D12878464C800705D520
:100480006068F0218843A968084360602878C00745
:1004900053D06868012817D0022818D0032819D033
:1004A00021688907002958DA6168890889000143B1
:1004B0006160FFF731FF69680746012913D00229FF
:1004C0001DD0032927D034E021688903EAE7216899
:1004D0008901E7E7616BC903E4E7FFF71DFFC11B73
:1004E0002D48814223D860680007800F0128F4D18D
:1004F00023E0FFF711FFC11B2748814217D860682E
:100500000007800F0228F4D117E0FFF705FFC11B99
:10051000214881420BD860680007800F0328F4D17E
:100520000BE0FFF7F9FEC11B1B48814201D90320F4
:10053000F8BD60680007800FF3D115480168C9074E
:10054000C90FB1420BD90168490849003143016024
:100550000068C007C00FB04201D00120F8BD287864
:10056000400706D56068072109028843E968084307
:10057000606000F02DF86168084A0906090F515CB7
:10058000C840074908600020FFF720FF0020F8BDA1
:10059000002002400010024088130000541600089A
:1005A000040000200148006870470000040000209B
:1005B0000448054900684968044A4905490F515CE7
:1005C000C840704704000020001002406416000874
:1005D00030B516A30FCB89B06C460FC417A30FCB51
:1005E0000FC41A494A680C20144604401848042CC9
:1005F00005D0184B082C04D00C2C00D1184609B09B
:1006000030BD9402240F6D462C5DC96A04AD090704
:10061000090FD203695C920F022A02D0032A00D18B
:100620001846FFF783FD6043E9E700000203040575
:10063000060708090A0B0C0D0E0F10100102030427
:1006400005060708090A0B0C0D0E0F1000100240DA
:1006500000127A00006CDC02FEB504460078F04E11
:10066000F04DC00748D068680007800F01281FD0F0
:1006700068680007800F022804D16868C003800FF3
:10068000022815D06168012919D0012080040029B1
:1006900001D0052917D02968B14329602968814311
:1006A0002960606800281BD0FFF736FE074613E07C
:1006B0002868800320D56068002876D01CE0286870
:1006C00030432860EDE7296801432960F7E7FFF729
:1006D00023FEC01B642869D828688003F7D50BE087
:1006E000FFF71AFE074604E0FFF716FEC01B64285A
:1006F000F1D828688003F7D4207880073ED5686851
:100700000007800F14D068680007800F022804D10A
:100710006868C003800F01280AD0E06800282868B4
:100720001DD0012108432860FFF7F6FD07460BE0C6
:10073000286880070BD5E068012836D107E0FFF76D
:10074000EBFDC01B0228C6D828688007F7D52868AB
:10075000F82188432169C900084328600EE0400859
:1007600040002860FFF7D8FD074604E0FFF7D4FDFE
:10077000C01B0228AFD828688007F7D4207800076C
:1007800024D5E0690028686A11D001210843686215
:10079000FFF7C2FD074604E0FFF7BEFDC01B0228BD
:1007A00099D8686A8007F7D510E036E1D1E04008B3
:1007B00040006862FFF7B0FD074604E0FFF7ACFDBC
:1007C000C01B022887D8686A8007F7D420780427DE
:1007D0004007002861DA00200190E869C00008D4D1
:1007E000E969B8060143E961E96901400120009126
:1007F00001908D480168C90511D401688215114323
:100800000160FFF789FD009005E0FFF785FD009985
:10081000401A642897D884480068C005F5D5A068B8
:1008200001280AD0002801D0052811D0286A4008E4
:1008300040002862286AB84302E0286A0121084380
:100840002862A068002812D0FFF766FD00900AE039
:10085000286A38432862F0E7FFF75EFD0099411AE5
:100860007248814275D8286A8007F5D50DE0FFF7F8
:1008700053FD009006E0FFF74FFD0099411A6B48C9
:10088000814266D8286A8007F5D40198002804D0F0
:10089000E969012000078143E9612078C00635D568
:1008A000606901280CD0401D686B24D03843686310
:1008B000686B400840006863FFF72EFD074622E0A2
:1008C000686B38436863686B012108436863FFF70E
:1008D00023FD074604E0FFF71FFDC01B022838D8A0
:1008E000686B8007F7D5686BF8218843A169C90058
:1008F000084368630AE0B8436863F4E7FFF70CFD58
:10090000C01B022825D8686B8007F7D420788006A2
:1009100037D568680007800F032813D06868000780
:10092000800F022804D16868C003800F032809D013
:10093000206A0028686B16D030436863FFF7ECFC30
:1009400006460CE0686BC0031BD5206A012864D101
:1009500017E05BE0FFF7E0FC801B022856D8686BCD
:10096000C003F7D50DE0B0436863FFF7D5FC06463A
:1009700004E0FFF7D1FC801B022847D8686BC00356
:10098000F7D4606A002846D069680907890F0229F0
:1009900043D0012636060228286805D0B0432860D7
:1009A000FFF7BAFC044633E0B0432860FFF7B4FC1D
:1009B000074604E0FFF7B0FCC01B022826D82868D1
:1009C0008001F7D4E86A216B000900010843E8625E
:1009D000A16AE06A084369687B22D2039143084315
:1009E0006860286830432860FFF796FC044604E0FE
:1009F000FFF792FC001B022808D828688001F7D571
:100A000009E0FFF789FC001B022801D90320FEBD85
:100A100028688001F5D40020FEBD0120FEBD000045
:100A20000000010000100240007000408813000028
:100A3000F8B5040007D0002625464035A662687F39
:100A4000002802D005E00120F8BD2E77204600F0F6
:100A50004BF802236B7720680168402291430160C4
:100A60000721E0680902884201D9002201E0012241
:100A700012030F273F02B84202D0884200D0A6627C
:100A8000276B002F05D1884201D9236301E00120A3
:100A90002063A168606863690843216919430843BA
:100AA0000123A1695B0219400843E1690843216AF7
:100AB0000843A16A084321680860616B606AA36902
:100AC00008431B0C0427E1683B4019430843216895
:100AD000104348602068C1697A029143C16126666B
:100AE000012068770020F8BD00B500680D4987B087
:100AF000884215D10C48826981140A438261806959
:100B000008400590A02000900220019000210320C1
:100B100003900291049109206946C006FFF74EFB3D
:100B200007B000BD0030014000100240042204491B
:100B30000428086902D09043086170471043FBE71E
:100B400000E000E070470000094910B5401E8842EF
:100B500001D9012010BD074C60610321081F00F07E
:100B60001BFA0020A06107202061002010BD0000BA
:100B7000FFFFFF0000E000E010B5FFF7E3FF10BD4E
:100B80007047704770B5040005D025462035687F52
:100B9000002802D006E0012070BD00202877204602
:100BA00000F00AF802206877211D206800F088FA1A
:100BB00001206877002070BD08B5006806498842AA
:100BC00008D106488269012189040A43826180694B
:100BD0000840009008BD000000480140001002409D
:100BE0000268D36801210B43D360006802680A439E
:100BF000026000207047704770B5044600680169C4
:100C00000025C9438907002915DBC168C943890745
:100C100011D4E91E016101202077206880698007D6
:100C2000204602D0FFF7E7FF04E000F096F82046E8
:100C300000F094F8257720680169C943490717D463
:100C4000C168C943490713D40421C9430161022083
:100C50002077206880698005800F204602D0FFF74A
:100C6000CAFF04E000F079F8204600F077F8257715
:100C700020680169C943090716D4C168C943090737
:100C800012D40821C9430161042020772068C0697B
:100C90008007204602D0FFF7AEFF04E000F05DF8C9
:100CA000204600F05BF8257720680169C943C90632
:100CB00017D4C168C943C90613D41021C9430161BF
:100CC000082020772068C0698005800F204602D068
:100CD000FFF791FF04E000F040F8204600F03EF8F6
:100CE000257720680169C943C90708D1C168C9438C
:100CF000C90704D1891E0161204600F030F8206840
:100D00000169C943090609D4C168C943090605D464
:100D10008021C94301612046FFF732FF2068016945
:100D2000C943490609D4C168C943490605D44021CD
:100D3000C9430161204600F019F820680169C943E0
:100D4000890609D4C168C943890605D42021C9434D
:100D500001612046FFF715FF70BD7047704710B561
:100D600009204021C006FFF7CCFA10BD70470000F3
:100D700000B500680E4987B0884216D10D48C26997
:100D8000012149040A43C261C0690840059004205A
:100D90000090122001900121032003900291049100
:100DA00009206946C006FFF709FA07B000BD000038
:100DB0000044004000100240FFB50646044660367D
:100DC000707A83B00D46202858D1002D0CD005989C
:100DD000002809D00120A1680003814207D12069C1
:100DE000002804D1E80702D0012007B0F0BD307A16
:100DF000012843D0012030720020E066212070726B
:100E0000FFF78AFA019027464037059838820598FF
:100E1000788218E0788A401E788206980090002236
:100E200080212046019B00F0BFFA002818D1012044
:100E3000A1680003814202D12069002812D02168F4
:100E4000287808856D1C788A0028E3D106980090E0
:100E5000002240212046019B00F0A6FA002808D07D
:100E60000320C2E728882168C005C00D0885AD1C95
:100E7000E9E72020707200203072B6E70220B4E764
:100E8000FEE70000F0B5214887B0426901218905DD
:100E90000A43426142690A400592426949110A4384
:100EA000426140691A4E08400122059011463046C1
:100EB000FFF72BFA0927FF06002240213846FFF7EB
:100EC00024FA11200024012501900294694600951E
:100ED00003943046FFF772F902206A4631C2694630
:100EE0003046FFF76BF91B206A4631C26946384627
:100EF000FFF764F94020009002946946019503943D
:100F00003846FFF75BF907B0F0BD00000010024063
:100F10000014004810B510480E490160FF2105314A
:100F2000416000210722816012020161C26001223A
:100F3000416152028261016241620822816207239B
:100F4000C261C36242630163FFF772FD002800D0F3
:100F5000FEE710BD003001400C00002010B50C4829
:100F60000A490160E1214902416000218160C160BC
:100F700001618161C1610C22016242614162FFF73E
:100F8000D1F9002800D0FEE710BD00000044004069
:100F9000B0000020704700008307FF22DB0E9A405C
:100FA0008907090E994000280BDA0007000F08385E
:100FB000830808489B001818C36993430B43C36117
:100FC0007047830804489B001B1818689043084327
:100FD0001860704700ED00E000E400E070477047E3
:100FE00010B5FFF7DBF9FFF7C7FD10BD30B591B0C5
:100FF0000225012003901020099504900095C0025D
:101000000A900320800400240B900C946846FFF79C
:1010100023FB002800D0FEE707200D900F9401214C
:101020000E9510940DA8FFF713FA002800D0FEE7E4
:10103000FFF7B8FA7D21C900FFF778F8FFF784FDC4
:101040000420FFF773FD00221146501EFFF7FCF944
:1010500011B030BD1348016801221143016041689D
:10106000114A114041600168104A11400160016855
:10107000012292049143016041683F22120491438E
:101080004160C16A09090901C162016BFF22D432C2
:1010900091430163416B490849004163002181602C
:1010A00070470000001002400CB8FF08FFFFF6FE7A
:1010B00010B50248FFF7A0FD10BD00007000002031
:1010C000F0B502681A4B0124A4071A4D984203D0C8
:1010D000A04201D0A84203D17026B2434E683243E9
:1010E000154E164F98420AD0A04208D0A84206D00A
:1010F000134CA04203D0B04201D0B84204D1032423
:101100002402A243CC6822438024A2434C69224398
:1011100002608A68C2620A688262984203D0B04262
:1011200001D0B84201D10969016301214161F0BDDB
:10113000002C0140000400400044014000480140F0
:101140000020004010B5818CC90707D001684A68AB
:1011500001235B049A43836A1A434A60818C89079E
:1011600007D501684A6801231B049A43C36A1A43DE
:101170004A60818C490707D501684A6801239B04AE
:101180009A43036B1A434A60818C090707D50168AB
:101190004A680123DB039A43436B1A434A60818CFC
:1011A000C90607D50268916801231B039943836B25
:1011B00019439160818C890607D501688A680123EB
:1011C0005B039A43C36B1A438A60818C490612D52C
:1011D00003685A6801210905046C8A4322435A6056
:1011E000026C8A4207D10268516803235B05994368
:1011F000436C19435160818C090607D501684A6820
:101200000123DB04806C9A4302434A6010BD000056
:10121000F8B500260446C666FFF77EF80546144971
:10122000206888421DD10068124F000709D50121AE
:101230002B46002249052046009700F0B5F800280B
:101240000DD12068006840070BD501212B460022F4
:1012500089052046009700F0A7F8002801D0032058
:10126000F8BD202060346072A07226720020F8BDA4
:1012700000380140FFFFFF01F8B504462369A2686A
:10128000E5691A43636910202B43002125681A433E
:101290002B680E463E4F3B4013432B6023685A6831
:1012A00003252D03AA43E5682A435A60236AA269ED
:1012B00025681A43AB680B273F02BB431343AB605F
:1012C000344A2568954210D1334A126B9207920F27
:1012D0000ED0012A05D0022A05D0032A09D1022006
:1012E00007E0042005E0082003E02C4A954200D1E5
:1012F00000200122E369D203934224D100280CD0BC
:1013000002280DD0042813D0082817D001260A0976
:1013100012010807400F10432FE0FFF749F909E0D9
:1013200061681F4A48088018FEF700FF81B2EEE7A7
:10133000FFF74EF9616840004A08F4E7616801224E
:1013400048081204EFE7002808D0022809D0042832
:101350000BD0082814D001263046F8BDFFF728F935
:1013600005E061680F4A48080CE0FFF731F9616851
:101370004A088018FEF7DAFE80B22168C860EBE701
:10138000616848088018FEF7D1FE80B2E860E3E7A4
:10139000F369FFEF003801400010024000440040B4
:1013A0000024F40000127A00FFB581B017460E4603
:1013B00004460A9D1DE0681C1BD0002D05D0FEF7D9
:1013C000ABFF0499401AA84213D920680168FF2294
:1013D000A132914301602068816849084900816019
:1013E000202060346072A07200202072032005B0BB
:1013F000F0BD2068C1693046884304D00020B8425F
:10140000D9D00020F3E70120F9E700000FB410B5B0
:1014100003A9044B044A029800F018F810BC08BC59
:1014200004B018479D1500080800002002E008C815
:10143000121F08C1002AFAD170477047002001E04E
:1014400001C1121F002AFBD170470000FFB58DB00B
:101450000446002506E025280AD0109A0F999047E7
:10146000641C6D1C20780028F5D1284611B0F0BD11
:1014700000270121484A009700E00743641C2378B5
:101480000846203B98401042F7D120782E2817D1EB
:10149000042007436078641C2A280CD10E98641C31
:1014A00002C800910E900BE000990A225143303996
:1014B0004018641C00902078014630390929F3D97E
:1014C00020780028D1D0642808D0692806D0752853
:1014D0001ED0109A0F9990476D1C5BE00A200E9960
:1014E000019001C90E91002802DA40422D2102E04C
:1014F000390504D52B216A461172012103E0F90751
:1015000004D02021F7E70BAE0B910DE00021FAE7A4
:101510000A200E99019001C90E91F7E70199FEF793
:1015200005FE3031761E31700028F7D103A8801BEC
:1015300020300190780701D5009801E0012000904B
:101540000199884201DD401A00E000200027009048
:1015500006E002A8109AC05D0F9990476D1C7F1C91
:101560000B988742F5DB04E0109A30200F999047E2
:101570006D1C0099481E00900029F5DC05E03078CC
:10158000109A761C0F9990476D1C0199481E019086
:101590000029F4DC641C65E70928010013B5642305
:1015A000012269460248FFF707FC00981CBD0000B5
:1015B000B0000020FEF7FAFEFFF718FDFFF762FC0F
:1015C000FFF7CCFCFFF7A6FC1E481D490160272150
:1015D00041600021816001611B4A4161C2608161FB
:1015E000FFF7D0FA002800D0FEE7002211461620AF
:1015F000FEF72AFF1620FEF71DFF1248FFF7F0FA4C
:101600001048FF223F21B030FEF7A6FD0D48FF2213
:101610003F21EF30FEF7A0FDFF223F210B48FEF7F0
:101620009BFD0924E4063220FEF7BAFD082120467E
:10163000FEF762FE014606A0FFF7E8FEF3E70000B2
:1016400000480140700000201A4100009E01002067
:1016500025640000000000000000000001020304F7
:101660000607080900000000010203048C160008A8
:10167000000000200C0000002C1400089816000840
:101680000C000020D40500003C14000800000000FD
:0816900000127A0000000000C6
:04000005080000C12E
:00000001FF
