:020000040800F2
:10000000980B0020D5000008BD0E0008D90D00088F
:1000100000000000000000000000000000000000E0
:100020000000000000000000000000007510000843
:100030000000000000000000050F00087710000815
:100040000501000805010008050100080501000878
:100050000501000805010008050100080501000868
:100060000501000805010008050100080501000858
:100070000501000805010008050100080501000848
:100080000501000800000000000000000501000854
:100090000000000005010008050100080501000836
:1000A0000000000005010008050100080501000826
:1000B0000501000800000000050100080501000816
:1000C0000348854600F05AF800480047E515000847
:1000D000980B00200C4880F308880C480168090E32
:1000E0000B4A914205D10B480B4901600B480C4962
:1000F00001600C4880470C480047FEE7FEE7FEE73A
:10010000FEE7FEE7FEE70000980B00200400000079
:100110001F00000018100240010000000000014014
:1001200000000000E9100008C100000830B50B46CF
:10013000014600202022012409E00D46D5409D42C1
:1001400005D31D469540491B254695404019154647
:10015000521E002DF1DC30BDD2B201E00270401C15
:10016000491EFBD270470022F6E710B513460A4637
:1001700004461946FFF7F0FF204610BD064C012546
:10018000064E05E0E36807CC2B430C3C984710343F
:10019000B442F7D3FFF798FF301700085017000854
:1001A00031B500F0B5F8009C0546601C00D0641C19
:1001B00000F0AEF8401BA042FAD338BDF8B50023DA
:1001C00089E001249C402A46A44622407ED04C6807
:1001D000022C01D0122C0CD1DC08A40027183C6A98
:1001E0005D07ED0E0F26AE40B4430E69AE402643C8
:1001F0003E6205685E000324B4400F79A543BF0743
:10020000BF0FB7402F4307604D68012D05D0022D69
:1002100003D0112D01D0122D0ED18568CF68A543D2
:10022000B7402F43876047686546AF430D79ED06B9
:10023000ED0F9D403D434560C568A5438C68B440C3
:100240002C43C4604C68E40044D5264CA5690126C3
:100250003543A561A4699D0834400094224CAD004B
:100260002F19BC689D072E0F0F25B540AC430925FB
:10027000ED06A84201D100250AE01C4DA84201D19B
:10028000012505E01A4DA84201D1022500E005250F
:10029000B5402543BD60174C25684E689543F6036D
:1002A00000D51543256065684E689543B60300D5B3
:1002B00015436560A5684E689543F60200D5154361
:1002C000A560E5684E689543B60200E002E000D5FF
:1002D0001543E5605B1C0A681546DA4000D070E7FC
:1002E000F8BD00000010024000000140000400487A
:1002F00000080048000401400069084000D00120C7
:100300007047002A01D08161704781627047000008
:1003100001480068704700000000002002480168A2
:10032000491C0160704700000000002010B506481D
:100330000168102211430160002000F007F800F06E
:1003400017F8002010BD00000020024010B5044640
:1003500000F0DEF87D21C900FFF7E8FE00F062FC46
:1003600000222146501E00F025F8002010BD00009C
:1003700008B50F48816901221143816181691140EB
:100380000091C26901040A43C261C06900220840A9
:1003900000901146501F00F00DF800221146901EEB
:1003A00000F008F800221146501E00F003F808BDC6
:1003B0000010024010B500F083FD10BDF8B50546F1
:1003C0004E480E460068C007C00FB0420AD24B48E4
:1003D000016849084900314301600068C007C00F47
:1003E000B04270D12878464C800705D56068F0216E
:1003F0008843A968084360602878C00753D06868BC
:10040000012817D0022818D0032819D0216889079D
:10041000002958DA61688908890001436160FFF7A3
:1004200077FF69680746012913D002291DD00329E7
:1004300027D034E021688903EAE721688901E7E7EA
:10044000616BC903E4E7FFF763FFC11B2D488142DD
:1004500023D860680007800F0128F4D123E0FFF75C
:1004600057FFC11B2748814217D860680007800FDB
:100470000228F4D117E0FFF74BFFC11B214881424E
:100480000BD860680007800F0328F4D10BE0FFF75A
:100490003FFFC11B1B48814201D90320F8BD6068A2
:1004A0000007800FF3D115480168C907C90FB14291
:1004B0000BD9016849084900314301600068C00751
:1004C000C00FB04201D00120F8BD2878400706D502
:1004D0006068072109028843E9680843606000F00A
:1004E0002DF86168084A0906090F515CC8400749A0
:1004F00008600020FFF72AFF0020F8BD002002401E
:1005000000100240881300001817000804000020A3
:1005100001480068704700000400002004480549B5
:1005200000684968044A4905490F515CC840704752
:1005300004000020001002402817000830B516A360
:100540000FCB89B06C460FC417A30FCB0FC41A4949
:100550004A680C20144604401848042C05D0184B57
:10056000082C04D00C2C00D1184609B030BD9402E0
:10057000240F6D462C5DC96A04AD0907090FD2032B
:10058000695C920F022A02D0032A00D11846FFF7B5
:10059000CDFD6043E9E700000203040506070809F2
:1005A0000A0B0C0D0E0F10100102030405060708BC
:1005B000090A0B0C0D0E0F100010024000127A00F9
:1005C000006CDC02FEB504460078F04EF04DC0072A
:1005D00048D068680007800F01281FD068680007AE
:1005E000800F022804D16868C003800F022815D04C
:1005F0006168012919D001208004002901D0052952
:1006000017D02968B143296029688143296060684F
:1006100000281BD0FFF77CFE074613E02868800304
:1006200020D56068002876D01CE028683043286018
:10063000EDE7296801432960F7E7FFF769FEC01B72
:10064000642869D828688003F7D50BE0FFF760FEBF
:10065000074604E0FFF75CFEC01B6428F1D8286859
:100660008003F7D4207880073ED568680007800FA4
:1006700014D068680007800F022804D16868C0039E
:10068000800F01280AD0E068002828681DD00121C9
:1006900008432860FFF73CFE07460BE02868800708
:1006A0000BD5E068012836D107E0FFF731FEC01B0B
:1006B0000228C6D828688007F7D52868F82188431B
:1006C0002169C900084328600EE040084000286006
:1006D000FFF71EFE074604E0FFF71AFEC01B0228C4
:1006E000AFD828688007F7D42078000724D5E069C0
:1006F0000028686A11D0012108436862FFF708FEEC
:10070000074604E0FFF704FEC01B022899D8686A78
:100710008007F7D510E036E1D1E04008400068627C
:10072000FFF7F6FD074604E0FFF7F2FDC01B0228C5
:1007300087D8686A8007F7D4207804274007002804
:1007400061DA00200190E869C00008D4E969B806C0
:100750000143E961E96901400120009101908D4860
:100760000168C90511D40168821511430160FFF7C2
:10077000CFFD009005E0FFF7CBFD0099401A6428FB
:1007800097D884480068C005F5D5A06801280AD02C
:10079000002801D0052811D0286A400840002862AE
:1007A000286AB84302E0286A012108432862A06849
:1007B000002812D0FFF7ACFD00900AE0286A384309
:1007C0002862F0E7FFF7A4FD0099411A72488142C0
:1007D00075D8286A8007F5D50DE0FFF799FD0090E0
:1007E00006E0FFF795FD0099411A6B48814266D8F3
:1007F000286A8007F5D40198002804D0E96901200F
:1008000000078143E9612078C00635D56069012879
:100810000CD0401D686B24D038436863686B400877
:1008200040006863FFF774FD074622E0686B3843B9
:100830006863686B012108436863FFF769FD074639
:1008400004E0FFF765FDC01B022838D8686B8007FD
:10085000F7D5686BF8218843A169C900084368632C
:100860000AE0B8436863F4E7FFF752FDC01B0228B3
:1008700025D8686B8007F7D42078800637D568685C
:100880000007800F032813D068680007800F022834
:1008900004D16868C003800F032809D0206A0028AB
:1008A000686B16D030436863FFF732FD06460CE0F4
:1008B000686BC0031BD5206A012864D117E05BE098
:1008C000FFF726FD801B022856D8686BC003F7D5BA
:1008D0000DE0B0436863FFF71BFD064604E0FFF739
:1008E00017FD801B022847D8686BC003F7D4606AE5
:1008F000002846D069680907890F022943D00126DC
:1009000036060228286805D0B0432860FFF700FDAE
:10091000044633E0B0432860FFF7FAFC074604E0E2
:10092000FFF7F6FCC01B022826D828688001F7D400
:10093000E86A216B000900010843E862A16AE06AE5
:10094000084369687B22D2039143084368602868A2
:1009500030432860FFF7DCFC044604E0FFF7D8FCD6
:10096000001B022808D828688001F7D509E0FFF7A6
:10097000CFFC001B022801D90320FEBD286880019E
:10098000F5D40020FEBD0120FEBD000000000100E6
:10099000001002400070004088130000F8B5040009
:1009A00007D0002625464035A662687F002802D081
:1009B00005E00120F8BD2E77204600F04BF8022319
:1009C0006B77206801684022914301600721E0684D
:1009D0000902884201D9002201E0012212030F27F7
:1009E0003F02B84202D0884200D0A662276B002F97
:1009F00005D1884201D9236301E001202063A16869
:100A00006068636908432169194308430123A169A8
:100A10005B0219400843E1690843216A0843A16A5F
:100A2000084321680860616B606AA36908431B0C76
:100A30000427E1683B40194308432168104348609C
:100A40002068C1697A029143C161266601206877F6
:100A50000020F8BD00B500680D4987B0884215D167
:100A60000C48826981140A438261806908400590BC
:100A7000A020009002200190002103200390029109
:100A8000049109206946C006FFF798FB07B000BD36
:100A90000030014000100240FFB5064604464036D3
:100AA000307F002781B00D46012809D00120307722
:100AB000FFF72EFC0090707F012804D002279DE0F4
:100AC000022005B0F0BD002D72D0039800286FD031
:100AD0000320707700202066A5630399A1870399FE
:100AE000E1872064B080F0802065E0640121A06887
:100AF000C903884205D1206801680122920311438D
:100B0000016020680168490603D40168402211434E
:100B100001600720E16800028142606823D9002853
:100B200002D0E08F01281AD121682888C86005E02A
:100B300020688168890706D52988C160E08F401E3A
:100B4000E087AD1C0BE0049800283ED0401C06D086
:100B5000FFF7DEFB0099411A0498814235D2E08FFD
:100B60000028E5D136E0002802D0E08F01282ED100
:100B7000E08F012803D921682888C8600CE021682B
:100B8000287808730FE020688168890711D5E18F04
:100B9000012906D92988C160E08F801EE087AD1C3D
:100BA00015E029780173E08F401EE0876D1C0EE090
:100BB00023E00498002808D0401C08D0FFF7A8FBC9
:100BC0000099411A0498814201D3032716E0E08F6F
:100BD0000028D8D12046009A049900F094F9002802
:100BE00001D020202066A068002803D12068C168B9
:100BF00080680090206E002800D0012701207077C7
:100C00000020307738465CE704220449042808694C
:100C100002D09043086170471043FBE700E000E01A
:100C200070470000094910B5401E884201D90120D3
:100C300010BD074C60610321081F00F041F900203E
:100C4000A06107202061002010BD0000FFFFFF0011
:100C500000E000E010B5FFF7E3FF10BD70B5040041
:100C600005D025466035687A002802D006E00120CC
:100C700070BD00202872204600F026F824206872FB
:100C800020680168490849000160204600F0F4FA34
:100C90000128EDD0606A002802D0204600F052FA08
:100CA000206841680922D20291434160206881682E
:100CB0002A2291438160206801680122114301606A
:100CC000204600F0A5FA70BD00B500680E4987B057
:100CD000884217D10D48C269012149040A43C26103
:100CE000C069084005900C2000900220019000206F
:100CF0000290032003900120049009206946C00659
:100D0000FFF75CFA07B000BD00440040001002404D
:100D1000FFB5064604466036707A83B00D4620283B
:100D200058D1002D0CD00598002809D00120A168C9
:100D30000003814207D12069002804D1E80702D0CE
:100D4000012007B0F0BD307A012843D00120307275
:100D50000020E06621207072FFF7DAFA0190274642
:100D60004037059838820598788218E0788A401EC6
:100D7000788206980090002280212046019B00F096
:100D800013FB002818D10120A1680003814202D181
:100D90002069002812D02168287808856D1C788A7F
:100DA0000028E3D106980090002240212046019BB4
:100DB00000F0FAFA002808D00320C2E7288821684A
:100DC000C005C00D0885AD1CE9E720207072002029
:100DD0003072B6E70220B4E7FEE7000070B51548B0
:100DE00086B04269012189050A43426142690A408D
:100DF0000592426949110A43426140690E4E08401A
:100E00000122059011463046FFF77BFA112000249D
:100E10000125019002946946009503943046FFF73E
:100E2000CDF902206A4631C269463046FFF7C6F95D
:100E300006B070BD001002400014004810B5104804
:100E40000E490160FF2105314160002107228160C8
:100E500012020161C260012241615202826101629B
:100E60004162082281620723C261C3624263016357
:100E7000FFF794FD002800D0FEE710BD00300140D0
:100E80000406002010B50C480A490160E12149021E
:100E9000416000218160C16001618161C1610C22FA
:100EA000016242614162FFF7D9FE002800D0FEE7EF
:100EB00010BD00000044004068060020704700009C
:100EC0008307FF22DB0E9A408907090E994000280C
:100ED0000BDA0007000F0838830808489B00181831
:100EE000C36993430B43C3617047830804489B0065
:100EF0001B181868904308431860704700ED00E025
:100F000000E400E07047F8B50F460B461546009226
:100F1000032104460022C90200F01BF82026002805
:100F200012D13B46002280212046009500F05CF85B
:100F3000002809D103213B460022490220460095A2
:100F400000F007F8002803D0206E3043206603200D
:100F5000F8BDF8B51D4617460E4604463DE0032190
:100F600049028E4205D1002F03D1017B68460170F2
:100F70000078681C31D0002D05D0FFF7C9F906991B
:100F8000401AA84229D320684168E0229143416079
:100F90006068C11FFD390CD10121A068C9038842D6
:100FA00002D04911884204D120680168402291434F
:100FB00001600120A16A4003814207D121680A68CB
:100FC00082430A6021680A6802430A6001204034B3
:100FD0006077002020770320F8BD206881683140C9
:100FE000B942BCD10020F8BDF8B51D4617460E46E3
:100FF000044633E0681C31D0002D05D0FFF788F996
:101000000699401AA84229D320684168E0229143FA
:1010100041606068C11FFD390CD10121A068C9037E
:10102000884202D04911884204D1206801684022D8
:10103000914301600120A16A4003814207D12168E8
:101040000A6882430A6021680A6802430A60012034
:1010500040346077002020770320F8BD2068816845
:101060003046884304D00020B842C3D10020F8BDE8
:101070000120F9E7704710B5FFF750F9FFF7EAFDD7
:1010800010BD30B591B002250120039010200995C4
:1010900004900095C0020A90000100240B900C946B
:1010A0006846FFF78FFA002800D0FEE707200D9072
:1010B0000F9401210E9510940DA8FFF77FF90028D9
:1010C00000D0FEE7FFF724FA7D21C900FFF72EF8D4
:1010D000FFF7A8FD0420FFF797FD00221146501EE0
:1010E000FFF768F911B030BD1348016801221143C0
:1010F00001604168114A114041600168104A114085
:1011000001600168012292049143016041683F221D
:10111000120491434160C16A09090901C162016B6E
:10112000FF22D43291430163416B49084900416376
:101130000021816070470000001002400CB8FF08D9
:10114000FFFFF6FE10B5818CC90707D001684A6819
:1011500001235B049A43836A1A434A60818C89079E
:1011600007D501684A6801231B049A43C36A1A43DE
:101170004A60818C490707D501684A6801239B04AE
:101180009A43036B1A434A60818C090707D50168AB
:101190004A680123DB039A43436B1A434A60818CFC
:1011A000C90607D50268916801231B039943836B25
:1011B00019439160818C890607D501688A680123EB
:1011C0005B039A43C36B1A438A60818C490612D52C
:1011D00003685A6801210905046C8A4322435A6056
:1011E000026C8A4207D10268516803235B05994368
:1011F000436C19435160818C090607D501684A6820
:101200000123DB04806C9A4302434A6010BD000056
:10121000F8B500260446C666FFF77AF80546144975
:10122000206888421DD10068124F000709D50121AE
:101230002B46002249052046009700F0B5F800280B
:101240000DD12068006840070BD501212B460022F4
:1012500089052046009700F0A7F8002801D0032058
:10126000F8BD202060346072A07226720020F8BDA4
:1012700000380140FFFFFF01F8B504462369A2686A
:10128000E5691A43636910202B43002125681A433E
:101290002B680E463E4F3B4013432B6023685A6831
:1012A00003252D03AA43E5682A435A60236AA269ED
:1012B00025681A43AB680B273F02BB431343AB605F
:1012C000344A2568954210D1334A126B9207920F27
:1012D0000ED0012A05D0022A05D0032A09D1022006
:1012E00007E0042005E0082003E02C4A954200D1E5
:1012F00000200122E369D203934224D100280CD0BC
:1013000002280DD0042813D0082817D001260A0976
:1013100012010807400F10432FE0FFF7FFF809E024
:1013200061681F4A48088018FEF700FF81B2EEE7A7
:10133000FFF704F9616840004A08F4E76168012298
:1013400048081204EFE7002808D0022809D0042832
:101350000BD0082814D001263046F8BDFFF7DEF880
:1013600005E061680F4A48080CE0FFF7E7F861689C
:101370004A088018FEF7DAFE80B22168C860EBE701
:10138000616848088018FEF7D1FE80B2E860E3E7A4
:10139000F369FFEF003801400010024000440040B4
:1013A0000024F40000127A00FFB581B017460E4603
:1013B00004460A9D1DE0681C1BD0002D05D0FEF7D9
:1013C000A7FF0499401AA84213D920680168FF2298
:1013D000A132914301602068816849084900816019
:1013E000202060346072A07200202072032005B0BB
:1013F000F0BD2068C1693046884304D00020B8425F
:10140000D9D00020F3E70120F9E700000FB410B5B0
:1014100003A9044B044A029800F018F810BC08BC59
:1014200004B01847CD1500080800002002E008C8E5
:10143000121F08C1002AFAD170477047002001E04E
:1014400001C1121F002AFBD170470000FFB58DB00B
:101450000446002506E025280AD0109A0F999047E7
:10146000641C6D1C20780028F5D1284611B0F0BD11
:1014700000270121484A009700E00743641C2378B5
:101480000846203B98401042F7D120782E2817D1EB
:10149000042007436078641C2A280CD10E98641C31
:1014A00002C800910E900BE000990A225143303996
:1014B0004018641C00902078014630390929F3D97E
:1014C00020780028D1D0642808D0692806D0752853
:1014D0001ED0109A0F9990476D1C5BE00A200E9960
:1014E000019001C90E91002802DA40422D2102E04C
:1014F000390504D52B216A461172012103E0F90751
:1015000004D02021F7E70BAE0B910DE00021FAE7A4
:101510000A200E99019001C90E91F7E70199FEF793
:1015200005FE3031761E31700028F7D103A8801BEC
:1015300020300190780701D5009801E0012000904B
:101540000199884201DD401A00E000200027009048
:1015500006E002A8109AC05D0F9990476D1C7F1C91
:101560000B988742F5DB04E0109A30200F999047E2
:101570006D1C0099481E00900029F5DC05E03078CC
:10158000109A761C0F9990476D1C0199481E019086
:101590000029F4DC641C65E709280100F8B50D4654
:1015A0000646FEF7B5FE0446074FFEF7B1FE001BE8
:1015B000A84201D90020F8BD02213846FEF79CFE62
:1015C000B042F2D00120F8BD0014004813B56423E6
:1015D000012269460248FFF79BFB00981CBD0000F2
:1015E00068060020FEF7A2FEFFF74BFDFFF7F6FBB3
:1015F000FFF748FCFFF722FC01263446FF223F217B
:101600001D48FEF7A9FD1C48FF223F213F30FEF791
:10161000A3FD1948FF223F217E30FEF79DFD174FA5
:10162000154A15487E3211463F3900F035F814202E
:10163000FEF7B6FD02213846FEF75EFE050018D122
:10164000012E16D12121FFF7A9FF002811D1204634
:1016500001248443224601213846FEF752FEFEF75C
:1016600057FE0146224606A0FFF7D0FE3220FEF7C5
:1016700097FD2E46D4E70000D8060020001400484D
:10168000256420627574746F6E2070726573736563
:1016900064212025640A0000F7B5052310221C49A7
:1016A0001C48FFF7F9F91A4B0020072710331821BF
:1016B00004464C430021019A7E1A155C0122B24077
:1016C000154201D0F82500E0C02566189D55009D03
:1016D0002D5C154201D0F82500E0C025F6183572C2
:1016E000029D2D5C154201D0F82200E0C022491C69
:1016F00032740829DFDB401C3F28D8DB0449BD22B7
:101700000523D20010310348FFF7C6F9FEBD0000E3
:101710000C00002004060020000000000000000073
:101720000102030406070809000000000102030487
:1017300050170008000000200C0000002C140008C6
:101740005C1700080C0000208C0B00003C14000803
:0C1750000000000000127A000000000001
:04000005080000C12E
:00000001FF
