:020000040800F2
:1000000008080020D5000008751700087D150008B5
:1000100000000000000000000000000000000000E0
:100020000000000000000000000000002D19000882
:100030000000000000000000BD1700082F19000894
:100040000501000805010008050100080501000878
:100050000501000805010008050100080501000868
:100060000501000805010008050100080501000858
:100070000501000805010008050100080501000848
:100080000501000800000000000000000501000854
:100090000000000005010008051A0008050100081D
:1000A0000000000005010008050100080501000826
:1000B0000501000800000000050100080501000816
:1000C0000348854600F07EF80048004739260008BE
:1000D000080800200C4880F308880C480168090EC5
:1000E0000B4A914205D10B480B4901600B480C4962
:1000F00001600C4880470C480047FEE7FEE7FEE73A
:10010000FEE7FEE7FEE7000008080020040000000C
:100110001F00000018100240010000000000014014
:1001200000000000A9190008C100000830B50B4606
:10013000014600202022012409E00D46D5409D42C1
:1001400005D31D469540491B254695404019154647
:10015000521E002DF1DC30BD10B5202A04DB08460C
:10016000203AD040002110BD0B46D340D04020247F
:10017000A21A91400843194610BD03460B439B0742
:1001800003D009E008C9121F08C0042AFAD203E00C
:100190000B780370401C491C521EF9D27047D2B232
:1001A00001E00270401C491EFBD270470022F6E7B6
:1001B00010B513460A4604461946FFF7F0FF2046DD
:1001C00010BD0000064C0125064E05E0E36807CC93
:1001D0002B430C3C98471034B442F7D3FFF774FF1D
:1001E000882B0008A82B000806490020C861064893
:1001F0000169042211430161016940221143016137
:1002000070470000E803002000200240064A002159
:10021000D16106490A6902231A430A6148610869E3
:100220004022104308617047E8030020002002408C
:1002300010B5054B0022DA61044A136901242343F7
:100240001361018010BD0000E8030020002002407F
:1002500010B50B4A0020D168CB060A4904D5C869FD
:1002600002231843C8611020D3685B0705D5CB690A
:1002700001242343CB6104210843D06010BD00005A
:1002800000200240E803002070B5054600F078F930
:100290000646104C0AE0681C08D0002D04D000F07F
:1002A0006FF9801BA84201D9032070BDE068C00728
:1002B000F1D1E068800601D52020E060E068C0064A
:1002C00002D4E068400703D5FFF7C2FF012070BDEC
:1002D000002070BD00200240F8B5054623480F46B7
:1002E000017E012601290BD0012101762868204CCE
:1002F000012807D02046FFF7C7FF002813D030E0C1
:100300000220F8BD2046FFF7BFFF002829D1FFF7E4
:100310006BFF2046FFF7B8FF064616480169042226
:10032000914301611DE00020C04338606C6812E019
:100330002046FFF76BFF0E48FFF7A6FF06460D4865
:10034000026902218A430261002E01D03C6008E06C
:10035000012080022418A868810268680818A04259
:10036000E6D80248002101763046F8BDE8030020B7
:1003700050C300000020024003480169802211435D
:10038000016100207047000000200240F0B51FB45A
:1003900007461A480024017E15461E46012907D04B
:1003A000012101761648FFF76FFF002803D020E0F7
:1003B000022005B0F0BD012F02D0022F00D004278B
:1003C000220128463146FFF7C7FE81B2019862003C
:1003D0001018FFF72DFF0A48FFF756FF09490A6971
:1003E000520852000A61002803D1641CE4B2BC42E6
:1003F000E6D3024900220A76DBE70000E80300208A
:1004000050C300000020024005480169090605D5D7
:100410000449416004494160002070470120704751
:100420000020024023016745AB89EFCDF8B50023DA
:1004300089E001249C402A46A44622407ED04C6894
:10044000022C01D0122C0CD1DC08A40027183C6A25
:100450005D07ED0E0F26AE40B4430E69AE40264355
:100460003E6205685E000324B4400F79A543BF07D0
:10047000BF0FB7402F4307604D68012D05D0022DF7
:1004800003D0112D01D0122D0ED18568CF68A54360
:10049000B7402F43876047686546AF430D79ED0647
:1004A000ED0F9D403D434560C568A5438C68B44051
:1004B0002C43C4604C68E40044D5264CA569012651
:1004C0003543A561A4699D0834400094224CAD00D9
:1004D0002F19BC689D072E0F0F25B540AC43092589
:1004E000ED06A84201D100250AE01C4DA84201D129
:1004F000012505E01A4DA84201D1022500E005259D
:10050000B5402543BD60174C25684E689543F603FA
:1005100000D51543256065684E689543B60300D540
:1005200015436560A5684E689543F60200D51543EE
:10053000A560E5684E689543B60200E002E000D58C
:100540001543E5605B1C0A681546DA4000D070E789
:10055000F8BD000000100240000001400004004807
:1005600000080048000401400069084000D0012054
:100570007047002A01D08161704781627047000096
:1005800001480068704700001C00002070B504009E
:1005900005D025466035687A002802D006E00120A3
:1005A00070BD00202872204600F060FF2420687291
:1005B00020680168490849000160204601F02AFCD2
:1005C0000128EDD0606A002802D0204601F088FBA7
:1005D000206841680922D202914341602068816805
:1005E0002222914381602068816808221143816042
:1005F00020680168012211430160204601F0D6FB0A
:1006000070BD000002480168491C0160704700008D
:100610001C00002010B5064801681022114301603B
:10062000002000F007F800F017F8002010BD0000CF
:100630000020024010B5044600F0E8F87D21C90012
:10064000FFF774FD00F06CFC00222146501E00F004
:100650002FF8002010BD000008B50F488169012265
:1006600011438161816911400091C26901040A430B
:10067000C261C0690022084000901146501F00F07E
:1006800017F800221146901E00F012F800221146C1
:10069000501E00F00DF808BD00100240C106C90E42
:1006A00001208840014908607047000000E100E037
:1006B00010B501F061F810BDF8B505464E480E467C
:1006C0000068C007C00FB0420AD24B480168490811
:1006D0004900314301600068C007C00FB04270D1CB
:1006E0002878464C800705D56068F0218843A968C2
:1006F000084360602878C00753D06868012817D085
:10070000022818D0032819D021688907002958DA4F
:1007100061688908890001436160FFF731FF6968FA
:100720000746012913D002291DD0032927D034E020
:1007300021688903EAE721688901E7E7616BC9035A
:10074000E4E7FFF71DFFC11B2D48814223D86068F5
:100750000007800F0128F4D123E0FFF711FFC11B30
:100760002748814217D860680007800F0228F4D11B
:1007700017E0FFF705FFC11B214881420BD86068D5
:100780000007800F0328F4D10BE0FFF7F9FEC11B2F
:100790001B48814201D90320F8BD60680007800F23
:1007A000F3D115480168C907C90FB1420BD90168D7
:1007B00049084900314301600068C007C00FB042DA
:1007C00001D00120F8BD2878400706D560680721D0
:1007D00009028843E9680843606000F02DF8616809
:1007E000084A0906090F515CC84007490860002003
:1007F000FFF720FF0020F8BD00200240001002405B
:10080000881300006D2B00082000002001480068BC
:10081000704700002000002004480549006849682E
:10082000044A4905490F515CC84070472000002028
:10083000001002407D2B000830B516A30FCB89B005
:100840006C460FC417A30FCB0FC41A494A680C207B
:10085000144604401848042C05D0184B082C04D02A
:100860000C2C00D1184609B030BD9402240F6D46FF
:100870002C5DC96A04AD0907090FD203695C920FA8
:10088000022A02D0032A00D11846FFF74FFC60432A
:10089000E9E7000002030405060708090A0B0C0D2E
:1008A0000E0F10100102030405060708090A0B0CBD
:1008B0000D0E0F100010024000127A00006CDC02D6
:1008C000FEB504460078F04EF04DC00748D0686889
:1008D0000007800F01281FD068680007800F0228DA
:1008E00004D16868C003800F022815D0616801290F
:1008F00019D001208004002901D0052917D02968CA
:10090000B1432960296881432960606800281BD0B1
:10091000FFF736FE074613E02868800320D560689D
:10092000002876D01CE0286830432860EDE729686D
:1009300001432960F7E7FFF723FEC01B642869D84D
:1009400028688003F7D50BE0FFF71AFE074604E09E
:10095000FFF716FEC01B6428F1D828688003F7D47F
:10096000207880073ED568680007800F14D068683B
:100970000007800F022804D16868C003800F012897
:100980000AD0E068002828681DD0012108432860AB
:10099000FFF7F6FD07460BE0286880070BD5E068F7
:1009A000012836D107E0FFF7EBFDC01B0228C6D8AF
:1009B00028688007F7D52868F82188432169C9008D
:1009C000084328600EE0400840002860FFF7D8FD8B
:1009D000074604E0FFF7D4FDC01B0228AFD8286803
:1009E0008007F7D42078000724D5E0690028686ADA
:1009F00011D0012108436862FFF7C2FD074604E0F9
:100A0000FFF7BEFDC01B022899D8686A8007F7D59A
:100A100010E036E1D1E0400840006862FFF7B0FD29
:100A2000074604E0FFF7ACFDC01B022887D8686AC0
:100A30008007F7D4207804274007002861DA0020D7
:100A40000190E869C00008D4E969B8060143E9618A
:100A5000E96901400120009101908D480168C905B4
:100A600011D40168821511430160FFF789FD0090E0
:100A700005E0FFF785FD0099401A642897D884485F
:100A80000068C005F5D5A06801280AD0002801D06B
:100A9000052811D0286A400840002862286AB84317
:100AA00002E0286A012108432862A068002812D0C9
:100AB000FFF766FD00900AE0286A38432862F0E7F5
:100AC000FFF75EFD0099411A7248814275D8286A85
:100AD0008007F5D50DE0FFF753FD009006E0FFF726
:100AE0004FFD0099411A6B48814266D8286A8007F9
:100AF000F5D40198002804D0E9690120000781435A
:100B0000E9612078C00635D5606901280CD0401D08
:100B1000686B24D038436863686B400840006863A2
:100B2000FFF72EFD074622E0686B38436863686B69
:100B3000012108436863FFF723FD074604E0FFF740
:100B40001FFDC01B022838D8686B8007F7D5686B7B
:100B5000F8218843A169C900084368630AE0B843E3
:100B60006863F4E7FFF70CFDC01B022825D8686B0B
:100B70008007F7D42078800637D568680007800F93
:100B8000032813D068680007800F022804D1686822
:100B9000C003800F032809D0206A0028686B16D094
:100BA00030436863FFF7ECFC06460CE0686BC0035B
:100BB0001BD5206A012864D117E05BE0FFF7E0FC59
:100BC000801B022856D8686BC003F7D50DE0B043F0
:100BD0006863FFF7D5FC064604E0FFF7D1FC801BF5
:100BE000022847D8686BC003F7D4606A002846D053
:100BF00069680907890F022943D0012636060228B1
:100C0000286805D0B0432860FFF7BAFC044633E0FB
:100C1000B0432860FFF7B4FC074604E0FFF7B0FCE0
:100C2000C01B022826D828688001F7D4E86A216B07
:100C3000000900010843E862A16AE06A08436968A4
:100C40007B22D203914308436860286830432860C0
:100C5000FFF796FC044604E0FFF792FC001B022815
:100C600008D828688001F7D509E0FFF789FC001B48
:100C7000022801D90320FEBD28688001F5D4002098
:100C8000FEBD0120FEBD000000000100001002407A
:100C90000070004088130000F8B5040007D000265B
:100CA00025464035A662687F002802D005E0012075
:100CB000F8BD2E77204600F04BF802236B772068B2
:100CC00001684022914301600721E06809028842DF
:100CD00001D9002201E0012212030F273F02B8428E
:100CE00002D0884200D0A662276B002F05D188422F
:100CF00001D9236301E001202063A1686068636972
:100D000008432169194308430123A1695B02194083
:100D10000843E1690843216A0843A16A084321683E
:100D20000860616B606AA36908431B0C0427E168D3
:100D30003B40194308432168104348602068C1695B
:100D40007A029143C1612666012068770020F8BDD0
:100D500000B500680D4987B0884215D10C488269FA
:100D600081140A438261806908400590A0200090A8
:100D70000220019000210320039002910491092098
:100D80006946C006FFF752FB07B000BD00300140C6
:100D900000100240FFB5064604464036307F00276B
:100DA00081B00D46012809D001203077FFF7E8FB1C
:100DB0000090707F012804D002279DE0022005B03A
:100DC000F0BD002D72D0039800286FD003207077FB
:100DD00000202066A5630399A1870399E187206419
:100DE000B080F0802065E0640121A068C9038842DA
:100DF00005D1206801680122920311430160206837
:100E00000168490603D401684022114301600720AC
:100E1000E16800028142606823D9002802D0E08F97
:100E200001281AD121682888C86005E020688168F7
:100E3000890706D52988C160E08F401EE087AD1C78
:100E40000BE0049800283ED0401C06D0FFF798FB2A
:100E50000099411A0498814235D2E08F0028E5D1EB
:100E600036E0002802D0E08F01282ED1E08F012843
:100E700003D921682888C8600CE0216828780873A5
:100E80000FE020688168890711D5E18F012906D913
:100E90002988C160E08F801EE087AD1C15E02978AD
:100EA0000173E08F401EE0876D1C0EE023E0049884
:100EB000002808D0401C08D0FFF762FB0099411AB7
:100EC0000498814201D3032716E0E08F0028D8D18F
:100ED0002046009A049900F072FC002801D02020DE
:100EE0002066A068002803D12068C168806800904F
:100EF000206E002800D00127012070770020307775
:100F000038465CE7042204490428086902D090436B
:100F1000086170471043FBE700E000E07047000005
:100F2000094910B5401E884201D9012010BD074C67
:100F300060610321081F00F01FFC0020A061072052
:100F40002061002010BD0000FFFFFF0000E000E076
:100F500010B5FFF7E3FF10BD7047704770B502464C
:100F60002032137F012B1BD00123137702245477E7
:100F7000046865687026B5436560046865680E6836
:100F8000354365600468A5688026B543A5600068A0
:100F9000846849680C43846053770020107770BDE3
:100FA000022070BD70B5040005D025462035687F4D
:100FB000002802D006E0012070BD002028772046DE
:100FC00000F00AF802206877211D206800F022FD59
:100FD00001206877002070BD08B5012201689207E2
:100FE0000F48914206D1C16901221143C161C06914
:100FF000104008E00B4A914207D1C26989150A43A3
:10100000C261C0690AE0009008BD074A9142FBD165
:101010008269012189040A43826180690840F2E7FC
:10102000001002400020004000480140022201461A
:1010300020314A7702681368012003431360487720
:10104000002070470268D36801210B43D360006819
:1010500002680A43026000207047F8B5054604465E
:101060002035287F012817D001272F7702206877A5
:10107000226890687726FF23B0431B029843906054
:101080000868502837D00EDC202857D006DC00280E
:101090004ED0102840D14EE00220F8BD302850D06C
:1010A000402839D13CE060282DD0702817D001228B
:1010B0001203801A0ED090422ED1CB684A688968FC
:1010C000206800F0F4FC206881680122920311433B
:1010D000816021E020688168C908C900F8E7CB6811
:1010E0004A688968206800F0E2FC21688868B0439B
:1010F0003043886010E0CA684968206800F0CCFD81
:101100005021206806E0CA684968206800F0D5FDD3
:101110006021206800F0D6FC6F7700202877F8BDAA
:10112000CA684968206800F0B7FD40212068F1E7EF
:1011300000212068EEE710212068EBE720212068DD
:10114000E8E730212068E5E7704770B5044600689D
:1011500001690025C9438907002915DBC168C94316
:10116000890711D4E91E0161012020772068806978
:101170008007204602D0FFF7E7FF04E000F0AEF85A
:10118000204600F02FF9257720680169C9434907F7
:1011900017D4C168C943490713D40421C943016165
:1011A00002202077206880698005800F204602D0C9
:1011B000FFF7CAFF04E000F091F8204600F012F9B2
:1011C000257720680169C943090716D4C168C94356
:1011D000090712D40821C94301610420207720683F
:1011E000C0698007204602D0FFF7AEFF04E000F0A0
:1011F00075F8204600F0F6F8257720680169C943A4
:10120000C90617D4C168C943C90613D41021C943FC
:101210000161082020772068C0698005800F204682
:1012200002D0FFF791FF04E000F058F8204600F0EC
:10123000D9F8257720680169C943C90708D1C16871
:10124000C943C90704D1891E0161204600F0EEF8A8
:1012500020680169C943090609D4C168C943090660
:1012600005D48021C94301612046FFF775FE20683F
:101270000169C943490609D4C168C943490605D46F
:101280004021C9430161204600F0EEF82068016961
:10129000C943890609D4C168C943890605D42021F8
:1012A000C94301612046FFF758FE70BD00B50068D4
:1012B000084985B088420BD102200090122001908D
:1012C000002002900390049069460348FFF7AEF8AF
:1012D00005B000BD00200040000400487047F8B58C
:1012E000064604462036307F0D4601280DD00120E9
:1012F0003077022070770427002A08D0042A16D0FD
:10130000082A2AD00C2A4DD137E00220F8BD2068E7
:1013100000F0E0FB206881690822114381612068A8
:101320008169B9438161206881692A6912E0206876
:1013300000F00CFC206882690121C9020A43826125
:10134000206881690122920291438161206881694C
:101350002A6912021143816124E0206800F030FC08
:101360002068C26908210A43C2612068C169B94383
:10137000C1612068C1692A6912E0206800F05CFC44
:101380002068C1690122D2021143C1612068C2698B
:10139000012189028A43C2612068C1692A69120257
:1013A0001143C1610120707700203077F8BD70B51E
:1013B000040005D025462035687F002802D006E0CD
:1013C000012070BD00202877204600F00AF8022096
:1013D0006877211D206800F01DFB01206877002040
:1013E00070BD70477047000010B5044600680122C8
:1013F00000F052FB0A482168814205D00948814229
:1014000002D00948814204D1486C0122D203104322
:10141000486420680168012211430160002010BD6A
:10142000002C0140004401400048014070B50925EE
:10143000ED06012208212846FFF79BF8094CA06819
:10144000401CA06000F0C2FE0621A068FEF76EFE00
:10145000002901D101F024FA002208212846FFF7D3
:1014600088F870BD080000207047000000B50068D3
:101470000E4987B0884216D10D48C269012149043E
:101480000A43C261C0690840059004200090122000
:1014900001900121032003900291049109206946E3
:1014A000C006FEF7C3FF07B000BD000000440040C7
:1014B00000100240FFB5064604466036707A83B0DD
:1014C0000D46202858D1002D0CD00598002809D0B1
:1014D0000120A1680003814207D12069002804D1BE
:1014E000E80702D0012007B0F0BD307A012843D0D0
:1014F000012030720020E06621207072FFF740F872
:10150000019027464037059838820598788218E080
:10151000788A401E7882069800900022802120461A
:10152000019B00F00FFD002818D10120A1680003E5
:10153000814202D12069002812D0216828780885CC
:101540006D1C788A0028E3D1069800900022402183
:101550002046019B00F0F6FC002808D00320C2E7DB
:1015600028882168C005C00D0885AD1CE9E720204A
:10157000707200203072B6E70220B4E7FEE7000088
:10158000F0B52C4887B04269012189040A434261C1
:1015900042690A400592426909010A43426142696F
:1015A0000A400592426949110A4342614069012299
:1015B0000840059011462048FEF7DBFF4821012234
:1015C0000806FEF7D6FFFF200130002402266A46F7
:1015D00051C269461948FEF729FF012511270294D7
:1015E00069461548019700950394FEF71FFF694669
:1015F0001148009602950194FEF718FF13206A46E1
:1016000031C209206946C006FEF710FF482000904D
:1016100069460197029503940006FEF707FFA802AA
:101620006A4651C209206946C006FEF7FFFE07B0B0
:10163000F0BD000000100240001400480004004803
:1016400010B510480E490160FF21053141600021AD
:101650000722816012020161C260012241615202CF
:10166000826101624162082281620723C261C36212
:1016700042630163FFF710FB002800D0FEE710BDB6
:10168000003001406800002010B5164888B01449A9
:1016900001600024022184604160FF210461F53172
:1016A0008461C160FFF77EFC002800D0FEE70D4892
:1016B000FFF77DFE002800D0FEE760200090FA20B2
:1016C000019002940022694604940648FFF707FE41
:1016D000002800D0FEE70348FFF7E8FD08B010BD82
:1016E000002000400C01002010B50121124886B0F6
:1016F0008907016000242421846041600461611E27
:101700008461C160FFF74EFC002800D0FEE7012095
:101710000003009069460848FFF79FFC002800D0AE
:10172000FEE7049404A904480594FFF717FC002879
:1017300000D0FEE706B010BDCC00002010B50C486C
:101740000A490160E1214902416000218160C160D4
:1017500001618161C1610C22016242614162FEF757
:1017600015FF002800D0FEE710BD00000044004037
:101770008C010020704700008307FF22DB0E9A4097
:101780008907090E994000280BDA0007000F083876
:10179000830808489B001818C36993430B43C3612F
:1017A0007047830804489B001B181868904308433F
:1017B0001860704700ED00E000E400E07047F8B505
:1017C0000F460B4615460092032104460022C9022B
:1017D00000F01BF82026002812D13B460022802171
:1017E0002046009500F05CF8002809D103213B4613
:1017F000002249022046009500F007F8002803D097
:10180000206E304320660320F8BDF8B51D4617460C
:101810000E4604463DE0032149028E4205D1002FC9
:1018200003D1017B684601700078681C31D0002D1F
:1018300005D0FEF7A5FE0699401AA84229D32068D4
:101840004168E022914341606068C11FFD390CD1BD
:101850000121A068C903884202D04911884204D1FD
:10186000206801684022914301600120A16A400381
:10187000814207D121680A6882430A6021680A68A8
:1018800002430A6001204034607700202077032063
:10189000F8BD206881683140B942BCD10020F8BD54
:1018A000F8B51D4617460E46044633E0681C31D095
:1018B000002D05D0FEF764FE0699401AA84229D3F0
:1018C00020684168E022914341606068C11FFD3992
:1018D0000CD10121A068C903884202D04911884275
:1018E00004D1206801684022914301600120A16A6F
:1018F0004003814207D121680A6882430A60216857
:101900000A6802430A600120403460770020207793
:101910000320F8BD206881683046884304D0002049
:10192000B842C3D10020F8BD0120F9E7704710B5D7
:10193000FEF768FEFFF70CFB10BD10B592B00A2051
:101940000090012007900390C0030A900224032016
:101950000005102109940B9004910C946846FEF741
:10196000AFFF002800D0FEE707200D9000200F9069
:1019700010900E9401210DA8FEF79EFE002800D0C5
:10198000FEE7FEF743FF7D21C900FEF7CFFBFFF71F
:10199000C7FA0420FFF7B6FA00221146501EFEF7E0
:1019A00087FE12B010BD00001348016801221143E8
:1019B00001604168114A114041600168104A1140BC
:1019C00001600168012292049143016041683F2255
:1019D000120491434160C16A09090901C162016BA6
:1019E000FF22D43291430163416B490849004163AE
:1019F0000021816070470000001002400CB8FF0811
:101A0000FFFFF6FE10B50248FFF79FFB10BD000078
:101A10004C010020F0B502681A4B0124A4071A4DAE
:101A2000984203D0A04201D0A84203D17026B2430D
:101A30004E683243154E164F98420AD0A04208D045
:101A4000A84206D0134CA04203D0B04201D0B84205
:101A500004D103242402A243CC6822438024A2435D
:101A60004C69224302608A68C2620A6882629842B4
:101A700003D0B04201D0B84201D10969016301210C
:101A80004161F0BD002C01400004004000440140D1
:101A9000004801400020004010B50123046A8B403B
:101AA0009C430462036A8A401343036210BD30B54D
:101AB0008468FF252D021B021343AC430B432343D1
:101AC000836030BD826870239A430A4307210A432A
:101AD00082607047F0B5026A520852000262056ADD
:101AE000436882697024A24392080C6892001443F0
:101AF000022295438A68134E2A43114DA84204D00E
:101B0000B04202D0104FB84206D10827BA43CF687E
:101B10001743042297433A46A84204D0B04202D069
:101B2000094DA84206D103252D02AB434D691D4343
:101B30008B692B4343608461496841630262F0BD55
:101B4000002C0140004401400048014070B5026A89
:101B500010239A430262046A4368826973252D0246
:101B6000AA430D682D021543202294438A6812016E
:101B70002243104CA04208D11446CA688026B443C0
:101B8000120122434024A24305E00B4CA04202D0A4
:101B90000A4CA04208D10324A402A3434C69A40028
:101BA0001C438B699B0023434360856149688163C3
:101BB000026270BD002C0140004401400048014019
:101BC00070B5026AFF2301339A430262046A4368D4
:101BD000C2697025AA4392080D689200154301223C
:101BE000520294438A6812022243104CA04207D149
:101BF000C414A243CC68240222430615B24305E074
:101C00000B4CA04202D00B4CA04208D10324240369
:101C1000A3434C6924011C438B691B01234343608C
:101C2000C5614968C163026270BD0000002C0140BB
:101C3000004401400048014030B5026A01231B0303
:101C40009A430262056A4268C36973242402A3436B
:101C50000C6824021C4301235B039D438B681B0318
:101C60002B430A4DA84205D0094DA84202D0094D88
:101C7000A84205D10125AD03AA434D69AD012A4310
:101C80004260C46149680164036230BD002C0140B8
:101C9000004401400048014030B5036A046A64080A
:101CA000640004628469F025AC43120122430A24D3
:101CB000A3430B438261036230BD30B5036A102435
:101CC000A34303628469036A0F252D031203AC4307
:101CD0002243A024A343090119438261016230BD5C
:101CE00010B5818CC90707D001684A6801235B04DD
:101CF0009A43836A1A434A60818C890707D5016831
:101D00004A6801231B049A43C36A1A434A60818CC0
:101D1000490707D501684A6801239B049A43036B6E
:101D20001A434A60818C090707D501684A68012374
:101D3000DB039A43436B1A434A60818CC90607D57B
:101D40000268916801231B039943836B19439160D7
:101D5000818C890607D501688A6801235B039A4351
:101D6000C36B1A438A60818C490612D503685A688E
:101D700001210905046C8A4322435A60026C8A429D
:101D800007D10268516803235B059943436C1943EB
:101D90005160818C090607D501684A680123DB047C
:101DA000806C9A4302434A6010BD0000F8B50026DB
:101DB0000446C666FEF7E4FB0546144920688842DF
:101DC0001DD10068124F000709D501212B460022C2
:101DD00049052046009700F0B5F800280DD120688D
:101DE000006840070BD501212B46002289052046BB
:101DF000009700F0A7F8002801D00320F8BD2020AC
:101E000060346072A07226720020F8BD0038014074
:101E1000FFFFFF01F8B504462369A268E5691A438C
:101E2000636910202B43002125681A432B680E4656
:101E30003E4F3B4013432B6023685A6803252D0314
:101E4000AA43E5682A435A60236AA26925681A43AF
:101E5000AB680B273F02BB431343AB60344A256892
:101E6000954210D1334A126B9207920F0ED0012A7D
:101E700005D0022A05D0032A09D1022007E0042058
:101E800005E0082003E02C4A954200D10020012201
:101E9000E369D203934224D100280CD002280DD04C
:101EA000042813D0082817D001260A0912010807B0
:101EB000400F10432FE0FEF7AFFC09E061681F4AB6
:101EC00048088018FEF732F981B2EEE7FEF7B4FC5D
:101ED000616840004A08F4E761680122480812047A
:101EE000EFE7002808D0022809D004280BD00828E2
:101EF00014D001263046F8BDFEF78EFC05E061687F
:101F00000F4A48080CE0FEF797FC61684A08801801
:101F1000FEF70CF980B22168C860EBE761684808F9
:101F20008018FEF703F980B2E860E3E7F369FFEF9A
:101F30000038014000100240004400400024F4003A
:101F400000127A00FFB581B017460E4604460A9D7E
:101F50001DE0681C1BD0002D05D0FEF711FB049975
:101F6000401AA84213D920680168FF22A132914388
:101F70000160206881684908490081602020603440
:101F80006072A07200202072032005B0F0BD2068AE
:101F9000C1693046884304D00020B842D9D000201F
:101FA000F3E70120F9E700000FB410B503A9044BD3
:101FB000044A029800F024F810BC08BC04B018478A
:101FC000C12400082400002030B47446641E257823
:101FD000641CAB4200D21D46635D5B00E31830BC5D
:101FE000184702E008C8121F08C1002AFAD170473A
:101FF0007047002001E001C1121F002AFBD1704789
:10200000FFB58DB00F460546002606E025280AD00C
:10201000109A0F9990476D1C761C28780028F5D1EE
:10202000304611B0F0BD00240121674A009400E061
:1020300004436D1C2B780846203B98401042F7D192
:1020400028782E2815D10420044368786D1C2A288E
:102050000AD101CF6D1C00900BE000990A22514378
:10206000303940186D1C0090287801463039092914
:10207000F3D92878692843D006DC0028D0D063281B
:102080000BD0642804D13BE073280FD075284CD0C6
:10209000109A0F999047761C94E038786946087238
:1020A0000020487202A80190012003E038680190E6
:1020B0000020C0433F1D61070CD5002400E0641CD4
:1020C00000998C420FDA8442F9DB0199095D0029FD
:1020D000F5D108E0002400E0641C8442FCDB019997
:1020E000095D0029F8D1361907E0019801990078B7
:1020F000491C0191109A0F999047641EF5D261E036
:102100000A20019001CF002802DA40422D2102E08E
:10211000210504D52B216A461172012103E0E10754
:1021200001D02021F7E70C9104E00A20019001CFB3
:1021300000210C910BA90B9108E00199FDF7F6FF26
:102140000A460B993032491E0B910A700028F4D1CF
:102150000B9803A9081A20300190600701D5009858
:1021600001E0012000900199884203DD01460198B9
:10217000081A00E000200024009006E002A8109A4F
:10218000005D0F999047641C761C0C988442F5DB27
:1021900004E0109A30200F999047761C0099481E51
:1021A00000900029F5DC08E00B980B990078491C99
:1021B0000B91109A0F999047761C0199481E019037
:1021C0000029F1DC6D1C28E709280100FEB58348D1
:1021D00005210078FDF7AAFF804D083D00290BD0AE
:1021E0002E1F012929D07D48032980784DD002294E
:1021F0007ED004297DD0E6E0784903220B3901A87E
:10220000FDF7BBFF019800F0A3F90090734803228B
:1022100069460838FDF7B1FF2A78A2217048FDF71A
:10222000BEFF6F486A78A221A230FDF7B8FFAA78F6
:10223000A2216C48FDF7B3FFC5E0694E0024374684
:10224000A2370C20654960430C39896841186846FB
:102250000170FF21417061480B38817868468170B8
:10226000009800F075F901905C48032201A9083834
:10227000FDF783FF28783055687838555948A97894
:102280000155641CA22CDCDB9DE00B21FDF74EFF09
:10229000544E0F46002451480C3881684A0869465C
:1022A0000A70FF224A70002F2BD08068410040182E
:1022B00041080A2060430818FF216931FDF736FF05
:1022C0004948405C0A217843FDF730FF6946887031
:1022D000009800F03DF901904048032201A9083818
:1022E000FDF74BFF3E48297801556978A23001E09F
:1022F00009E02FE00155A8783055641CA22CCADBF8
:1023000061E00020E3E7354F0024364D0B3FB06815
:1023100005214000FDF70AFF69460870FF2048705C
:10232000B8788870009800F013F901902B480322C8
:1023300001A90838FDF721FF284829490838027803
:102340000A554278A2310A5580782855641CA22C7F
:10235000DDDB38E00B21FDF7E9FE224D0F460024BE
:102360001E4869460B3802780A7040784870002F82
:1023700032D0B0684100401841080A206043081874
:10238000FF216931FDF7D2FE1748405C0A217843EE
:10239000FDF7CCFE69468870009800F0D9F80190EE
:1023A0000E48032201A90838FDF7E7FE0B480C4947
:1023B000083802780A554278A2310A5580782855A3
:1023C000641CA22CCCDB72B6064A05481146A23921
:1023D00000F004FA62B6FEBD0020DCE71400002025
:1023E000FC01002040030020EA29000810B5024942
:1023F0000860FEF71BFE10BD040000201FB5FEF7AD
:1024000003F8012003900A480290002001906946D9
:1024100001A8FDF761FF002802D0FDF7ADFF04E041
:10242000FDF7AAFF0098401C00D0012004B010BDA9
:10243000007C000810B501244318A402A34201D96E
:10244000012010BD064B091806E0002A03D0C4186D
:1024500024781470521C401C8142F6D8002010BD14
:10246000007C0008F8B50D46074601214019890295
:102470001646884201D90120F8BD002E03D0FDF791
:10248000C3FF002414E00220F8BD31194878097810
:1024900002020A430948E1190918D30F0120FDF788
:1024A00075FF002803D0FDF767FF0420F8BDA41CCA
:1024B000AC42EAD3FDF760FF0020F8BD007C0008C5
:1024C00013B56423012269460248FEF7F3FF009822
:1024D0001CBD00008C01002010B519490A5C521C7B
:1024E0000A54032806D001280DD002280FD0042852
:1024F00018D00FE0C87813494007000F085A124956
:102500000968486306E0487800F042FA02E08878FB
:1025100000F02EFAFFF772FF094A08210020FFF7AA
:10252000A1FF10BD064901220C390B7810469843D3
:102530000870121A01210548FEF71BF810BD0000B3
:1025400014000020522B00080C0100200014004849
:1025500071B581B0684645798479002D21D006791E
:102560002B213046FDF7E2FD2B214143711A062253
:102570005143CEB2FF232A467243591B120A9A1ABC
:102580009E1B75432D0A5B1B6343614362431D0A17
:10259000090A120A0300FFF717FD050A0E13181C9B
:1025A0002100047044700088240420437CBD6846E8
:1025B0000470457002E0684602704470817011E05A
:1025C00068460170447085700CE068460170427086
:1025D00002E0684605704170847003E0684604704C
:1025E00041708270014689780088090408437CBDE7
:1025F000052808D2C100064808184178012902D1EF
:102600008078002801D0002070470120704700002A
:1026100040000020052808D2C1000648081841786B
:10262000002902D18078002801D0002070470120C5
:10263000704700004000002008B5FDF7EBFFFFF7F2
:102640007CF9FEF79DFFFFF779F8FEF7F9FF49489F
:102650004749016000262521866041600661466188
:1026600045498661C160FEF79DFC002800D0FEE769
:10267000FFF70AF8FFF738F8002211461620FEF798
:1026800017F81620FEF70AF83A488038FFF7AEFE32
:1026900009270121FF0689023846FDF765FF01245D
:1026A000364D012800D12C7028780121201AC2B2A1
:1026B0003348FDF75EFF00231A46324932A00094EA
:1026C000FFF772FC01213846FDF74EFF002805D1C7
:1026D000FFF794FE014630A0FFF766FC274AEE6044
:1026E0000C32082100202E61FFF7A4FE23480C3095
:1026F000067100F0B5F81F48FEF7A4FC1D484038ED
:10270000FEF794FC1B484038FEF751FE19480021A3
:102710004038FEF769FE0024E0B2FFF769FF0028A9
:1027200005D0E0B2FFF7D8FEE0B200F017F9042CB4
:1027300003D0641C052CEFDBEDE70420FFF76AFFF4
:102740000028E8D0042000F009F9FDF719FF164928
:10275000496A401A15498842DDD928780028DAD01C
:1027600001222E7011460648FDF703FFD3E7000053
:10277000004801404C010020714500000800002085
:1027800000140048D429000825730A7625642E25F4
:10279000642E25640A00000065655F666F726D61D6
:1027A000743A2025640A000040000020EE02000078
:1027B00010B50446012060700020A07000F006F8FB
:1027C000606010BD00214170817070470248006850
:1027D0000068406A7047000004000020F7B5052338
:1027E00004221C491C48FEF7D5FA1C4D0024182170
:1027F0001A48FDF7DBFC00200723012201991F1A6C
:102800000E5D1146B9400E4201D0F82600E0C02608
:102810002E54009E365D0E4201D0F82600E0C02600
:102820002F183E72029E365D0E4201D0F82100E064
:10283000C0212E18401C31740828DFDB18210748FE
:1028400000F0B8F80421034800F0B4F8641CA22C8E
:10285000CDDBFEBD00000020680000202800002025
:1028600010B50C4C0C49E0784007000F085A0B4992
:102870000968486320467F210B380170FF214170B1
:1028800008218170607800F083F8A07800F070F87B
:1028900010BD000014000020522B00080C01002085
:1028A000F8B502212948FDF75FFE0125291A2848BD
:1028B00009264170F60602213046FDF755FE244CEC
:1028C000281A203C607001213046FDF74DFE281A81
:1028D000607229021F48FDF747FE607410213046E0
:1028E000FDF742FE281A60760025EE00A15D002962
:1028F00002D0012907D00AE030194278012A06D116
:10290000FFF756FF1AE030194278002A04D0012D53
:1029100005D0022D03D011E0FFF754FF0EE001298E
:102920000CD137197878012808D1FFF74FFF796863
:10293000401A0949884201D93846E1E73019407800
:102940006D1CA055052DD0DBF8BD0000001400481B
:10295000600000200004004890D00300052804D245
:10296000024A0121C0008018817070474000002099
:1029700010B50B21FDF7DAFB0348405C19214843F1
:102980000249887010BD0000622B00080900002079
:1029900010B51B21FDF7CAFB05481A2905D00A22EC
:1029A00051430170FF21417010BD00210170FAE711
:1029B0000900002010B5064A07E013689C68A407C8
:1029C000FCD50488DC60801C891E0029F5DC10BD64
:1029D000680000204154583456430A64656B754EB4
:1029E000756B656D2032303232007F818386888A34
:1029F0008C8E91939597999C9EA0A2A4A6A8AAAD0F
:102A0000AFB1B3B5B7B9BBBDBEC0C2C4C6C8CACBEF
:102A1000CDCFD1D2D4D6D7D9DADCDDDFE0E2E3E422
:102A2000E6E7E8EAEBECEDEEEFF0F1F2F3F4F5F6C1
:102A3000F6F7F8F8F9FAFAFBFBFCFCFCFDFDFDFEED
:102A4000FEFEFEFEFEFEFEFEFEFEFDFDFDFCFCFCAF
:102A5000FBFBFAFAF9F8F8F7F6F6F5F4F3F2F1F011
:102A6000EFEEEDECEBEAE8E7E6E4E3E2E0DFDDDC05
:102A7000DAD9D7D6D4D2D1CFCDCBCAC8C6C4C2C07A
:102A8000BEBDBBB9B7B5B3B1AFADAAA8A6A4A2A04D
:102A90009E9C99979593918E8C8A888683817F7D61
:102AA0007B78767472706D6B69676562605E5C5A84
:102AB000585654514F4D4B49474543413F3E3C3A90
:102AC00038363433312F2D2C2A2827252422211F54
:102AD0001E1C1B1A18171614131211100F0E0D0CB2
:102AE0000B0A09080807060605040403030202028C
:102AF00001010100000000000000000000000101D1
:102B00000102020203030404050606070808090A75
:102B10000B0C0D0E0F10111213141617181A1B1C84
:102B20001E1F2122242527282A2C2D2F313334360D
:102B3000383A3C3E3F41434547494B4D4F5154562F
:102B4000585A5C5E60626567696B6D707274767806
:102B50007B7D00006400C800130145019001C201A3
:102B6000F501000102030405060708090A00000038
:102B7000000000000001020304060708090000002D
:102B80000001020304000000A82B00080000002040
:102B900028000000E21F0008D02B000828000020B9
:102BA000E0070000F21F0008000000000000000025
:102BB0000000000000000000000000000000000015
:102BC000000000000000000000127A000000000079
:04000005080000C12E
:00000001FF
